{
	"Practice Contracts/VariablesandData.sol": {
		"VariablesandData": {
			"abi": [
				{
					"inputs": [],
					"name": "get",
					"outputs": [
						{
							"internalType": "string",
							"name": "",
							"type": "string"
						},
						{
							"internalType": "uint8",
							"name": "",
							"type": "uint8"
						},
						{
							"internalType": "bool",
							"name": "",
							"type": "bool"
						}
					],
					"stateMutability": "view",
					"type": "function"
				},
				{
					"inputs": [
						{
							"internalType": "string",
							"name": "userName",
							"type": "string"
						},
						{
							"internalType": "uint8",
							"name": "userAge",
							"type": "uint8"
						}
					],
					"name": "store",
					"outputs": [],
					"stateMutability": "nonpayable",
					"type": "function"
				}
			],
			"devdoc": {
				"kind": "dev",
				"methods": {},
				"version": 1
			},
			"evm": {
				"assembly": "    /* \"Practice Contracts/VariablesandData.sol\":58:392  contract VariablesandData {... */\n  mstore(0x40, 0x80)\n    /* \"Practice Contracts/VariablesandData.sol\":138:142  true */\n  0x01\n    /* \"Practice Contracts/VariablesandData.sol\":125:142  bool alive = true */\n  dup1\n  exp(0x0100, 0x01)\n  dup2\n  sload\n  dup2\n  0xff\n  mul\n  not\n  and\n  swap1\n  dup4\n  iszero\n  iszero\n  mul\n  or\n  swap1\n  sstore\n  pop\n    /* \"Practice Contracts/VariablesandData.sol\":58:392  contract VariablesandData {... */\n  callvalue\n  dup1\n  iszero\n  tag_1\n  jumpi\n  0x00\n  dup1\n  revert\ntag_1:\n  pop\n  dataSize(sub_0)\n  dup1\n  dataOffset(sub_0)\n  0x00\n  codecopy\n  0x00\n  return\nstop\n\nsub_0: assembly {\n        /* \"Practice Contracts/VariablesandData.sol\":58:392  contract VariablesandData {... */\n      mstore(0x40, 0x80)\n      callvalue\n      dup1\n      iszero\n      tag_1\n      jumpi\n      0x00\n      dup1\n      revert\n    tag_1:\n      pop\n      jumpi(tag_2, lt(calldatasize, 0x04))\n      shr(0xe0, calldataload(0x00))\n      dup1\n      0x57d9190b\n      eq\n      tag_3\n      jumpi\n      dup1\n      0x6d4ce63c\n      eq\n      tag_4\n      jumpi\n    tag_2:\n      0x00\n      dup1\n      revert\n        /* \"Practice Contracts/VariablesandData.sol\":151:272  function store ( string memory userName, uint8 userAge) public {... */\n    tag_3:\n      tag_5\n      0x04\n      dup1\n      calldatasize\n      sub\n      dup2\n      add\n      swap1\n      tag_6\n      swap2\n      swap1\n      tag_7\n      jump\t// in\n    tag_6:\n      tag_8\n      jump\t// in\n    tag_5:\n      stop\n        /* \"Practice Contracts/VariablesandData.sol\":280:389  function get () public view returns (string memory, uint8, bool ){... */\n    tag_4:\n      tag_9\n      tag_10\n      jump\t// in\n    tag_9:\n      mload(0x40)\n      tag_11\n      swap4\n      swap3\n      swap2\n      swap1\n      tag_12\n      jump\t// in\n    tag_11:\n      mload(0x40)\n      dup1\n      swap2\n      sub\n      swap1\n      return\n        /* \"Practice Contracts/VariablesandData.sol\":151:272  function store ( string memory userName, uint8 userAge) public {... */\n    tag_8:\n        /* \"Practice Contracts/VariablesandData.sol\":232:240  userName */\n      dup2\n        /* \"Practice Contracts/VariablesandData.sol\":225:229  name */\n      0x00\n        /* \"Practice Contracts/VariablesandData.sol\":225:240  name = userName */\n      swap1\n      dup2\n      tag_14\n      swap2\n      swap1\n      tag_15\n      jump\t// in\n    tag_14:\n      pop\n        /* \"Practice Contracts/VariablesandData.sol\":257:264  userAge */\n      dup1\n        /* \"Practice Contracts/VariablesandData.sol\":251:254  age */\n      0x01\n      0x00\n        /* \"Practice Contracts/VariablesandData.sol\":251:264  age = userAge */\n      0x0100\n      exp\n      dup2\n      sload\n      dup2\n      0xff\n      mul\n      not\n      and\n      swap1\n      dup4\n      0xff\n      and\n      mul\n      or\n      swap1\n      sstore\n      pop\n        /* \"Practice Contracts/VariablesandData.sol\":151:272  function store ( string memory userName, uint8 userAge) public {... */\n      pop\n      pop\n      jump\t// out\n        /* \"Practice Contracts/VariablesandData.sol\":280:389  function get () public view returns (string memory, uint8, bool ){... */\n    tag_10:\n        /* \"Practice Contracts/VariablesandData.sol\":317:330  string memory */\n      0x60\n        /* \"Practice Contracts/VariablesandData.sol\":332:337  uint8 */\n      0x00\n        /* \"Practice Contracts/VariablesandData.sol\":339:343  bool */\n      dup1\n        /* \"Practice Contracts/VariablesandData.sol\":364:368  name */\n      0x00\n        /* \"Practice Contracts/VariablesandData.sol\":370:373  age */\n      0x01\n      0x00\n      swap1\n      sload\n      swap1\n      0x0100\n      exp\n      swap1\n      div\n      0xff\n      and\n        /* \"Practice Contracts/VariablesandData.sol\":375:380  alive */\n      0x01\n      dup1\n      sload\n      swap1\n      0x0100\n      exp\n      swap1\n      div\n      0xff\n      and\n        /* \"Practice Contracts/VariablesandData.sol\":356:381  return (name, age, alive) */\n      dup3\n      dup1\n      sload\n      tag_17\n      swap1\n      tag_18\n      jump\t// in\n    tag_17:\n      dup1\n      0x1f\n      add\n      0x20\n      dup1\n      swap2\n      div\n      mul\n      0x20\n      add\n      mload(0x40)\n      swap1\n      dup2\n      add\n      0x40\n      mstore\n      dup1\n      swap3\n      swap2\n      swap1\n      dup2\n      dup2\n      mstore\n      0x20\n      add\n      dup3\n      dup1\n      sload\n      tag_19\n      swap1\n      tag_18\n      jump\t// in\n    tag_19:\n      dup1\n      iszero\n      tag_20\n      jumpi\n      dup1\n      0x1f\n      lt\n      tag_21\n      jumpi\n      0x0100\n      dup1\n      dup4\n      sload\n      div\n      mul\n      dup4\n      mstore\n      swap2\n      0x20\n      add\n      swap2\n      jump(tag_20)\n    tag_21:\n      dup3\n      add\n      swap2\n      swap1\n      0x00\n      mstore\n      keccak256(0x00, 0x20)\n      swap1\n    tag_22:\n      dup2\n      sload\n      dup2\n      mstore\n      swap1\n      0x01\n      add\n      swap1\n      0x20\n      add\n      dup1\n      dup4\n      gt\n      tag_22\n      jumpi\n      dup3\n      swap1\n      sub\n      0x1f\n      and\n      dup3\n      add\n      swap2\n    tag_20:\n      pop\n      pop\n      pop\n      pop\n      pop\n      swap3\n      pop\n      swap3\n      pop\n      swap3\n      pop\n      swap3\n      pop\n        /* \"Practice Contracts/VariablesandData.sol\":280:389  function get () public view returns (string memory, uint8, bool ){... */\n      swap1\n      swap2\n      swap3\n      jump\t// out\n        /* \"#utility.yul\":7:82   */\n    tag_23:\n        /* \"#utility.yul\":40:46   */\n      0x00\n        /* \"#utility.yul\":73:75   */\n      0x40\n        /* \"#utility.yul\":67:76   */\n      mload\n        /* \"#utility.yul\":57:76   */\n      swap1\n      pop\n        /* \"#utility.yul\":7:82   */\n      swap1\n      jump\t// out\n        /* \"#utility.yul\":88:205   */\n    tag_24:\n        /* \"#utility.yul\":197:198   */\n      0x00\n        /* \"#utility.yul\":194:195   */\n      dup1\n        /* \"#utility.yul\":187:199   */\n      revert\n        /* \"#utility.yul\":211:328   */\n    tag_25:\n        /* \"#utility.yul\":320:321   */\n      0x00\n        /* \"#utility.yul\":317:318   */\n      dup1\n        /* \"#utility.yul\":310:322   */\n      revert\n        /* \"#utility.yul\":334:451   */\n    tag_26:\n        /* \"#utility.yul\":443:444   */\n      0x00\n        /* \"#utility.yul\":440:441   */\n      dup1\n        /* \"#utility.yul\":433:445   */\n      revert\n        /* \"#utility.yul\":457:574   */\n    tag_27:\n        /* \"#utility.yul\":566:567   */\n      0x00\n        /* \"#utility.yul\":563:564   */\n      dup1\n        /* \"#utility.yul\":556:568   */\n      revert\n        /* \"#utility.yul\":580:682   */\n    tag_28:\n        /* \"#utility.yul\":621:627   */\n      0x00\n        /* \"#utility.yul\":672:674   */\n      0x1f\n        /* \"#utility.yul\":668:675   */\n      not\n        /* \"#utility.yul\":663:665   */\n      0x1f\n        /* \"#utility.yul\":656:661   */\n      dup4\n        /* \"#utility.yul\":652:666   */\n      add\n        /* \"#utility.yul\":648:676   */\n      and\n        /* \"#utility.yul\":638:676   */\n      swap1\n      pop\n        /* \"#utility.yul\":580:682   */\n      swap2\n      swap1\n      pop\n      jump\t// out\n        /* \"#utility.yul\":688:868   */\n    tag_29:\n        /* \"#utility.yul\":736:813   */\n      0x4e487b7100000000000000000000000000000000000000000000000000000000\n        /* \"#utility.yul\":733:734   */\n      0x00\n        /* \"#utility.yul\":726:814   */\n      mstore\n        /* \"#utility.yul\":833:837   */\n      0x41\n        /* \"#utility.yul\":830:831   */\n      0x04\n        /* \"#utility.yul\":823:838   */\n      mstore\n        /* \"#utility.yul\":857:861   */\n      0x24\n        /* \"#utility.yul\":854:855   */\n      0x00\n        /* \"#utility.yul\":847:862   */\n      revert\n        /* \"#utility.yul\":874:1155   */\n    tag_30:\n        /* \"#utility.yul\":957:984   */\n      tag_72\n        /* \"#utility.yul\":979:983   */\n      dup3\n        /* \"#utility.yul\":957:984   */\n      tag_28\n      jump\t// in\n    tag_72:\n        /* \"#utility.yul\":949:955   */\n      dup2\n        /* \"#utility.yul\":945:985   */\n      add\n        /* \"#utility.yul\":1087:1093   */\n      dup2\n        /* \"#utility.yul\":1075:1085   */\n      dup2\n        /* \"#utility.yul\":1072:1094   */\n      lt\n        /* \"#utility.yul\":1051:1069   */\n      0xffffffffffffffff\n        /* \"#utility.yul\":1039:1049   */\n      dup3\n        /* \"#utility.yul\":1036:1070   */\n      gt\n        /* \"#utility.yul\":1033:1095   */\n      or\n        /* \"#utility.yul\":1030:1118   */\n      iszero\n      tag_73\n      jumpi\n        /* \"#utility.yul\":1098:1116   */\n      tag_74\n      tag_29\n      jump\t// in\n    tag_74:\n        /* \"#utility.yul\":1030:1118   */\n    tag_73:\n        /* \"#utility.yul\":1138:1148   */\n      dup1\n        /* \"#utility.yul\":1134:1136   */\n      0x40\n        /* \"#utility.yul\":1127:1149   */\n      mstore\n        /* \"#utility.yul\":917:1155   */\n      pop\n        /* \"#utility.yul\":874:1155   */\n      pop\n      pop\n      jump\t// out\n        /* \"#utility.yul\":1161:1290   */\n    tag_31:\n        /* \"#utility.yul\":1195:1201   */\n      0x00\n        /* \"#utility.yul\":1222:1242   */\n      tag_76\n      tag_23\n      jump\t// in\n    tag_76:\n        /* \"#utility.yul\":1212:1242   */\n      swap1\n      pop\n        /* \"#utility.yul\":1251:1284   */\n      tag_77\n        /* \"#utility.yul\":1279:1283   */\n      dup3\n        /* \"#utility.yul\":1271:1277   */\n      dup3\n        /* \"#utility.yul\":1251:1284   */\n      tag_30\n      jump\t// in\n    tag_77:\n        /* \"#utility.yul\":1161:1290   */\n      swap2\n      swap1\n      pop\n      jump\t// out\n        /* \"#utility.yul\":1296:1604   */\n    tag_32:\n        /* \"#utility.yul\":1358:1362   */\n      0x00\n        /* \"#utility.yul\":1448:1466   */\n      0xffffffffffffffff\n        /* \"#utility.yul\":1440:1446   */\n      dup3\n        /* \"#utility.yul\":1437:1467   */\n      gt\n        /* \"#utility.yul\":1434:1490   */\n      iszero\n      tag_79\n      jumpi\n        /* \"#utility.yul\":1470:1488   */\n      tag_80\n      tag_29\n      jump\t// in\n    tag_80:\n        /* \"#utility.yul\":1434:1490   */\n    tag_79:\n        /* \"#utility.yul\":1508:1537   */\n      tag_81\n        /* \"#utility.yul\":1530:1536   */\n      dup3\n        /* \"#utility.yul\":1508:1537   */\n      tag_28\n      jump\t// in\n    tag_81:\n        /* \"#utility.yul\":1500:1537   */\n      swap1\n      pop\n        /* \"#utility.yul\":1592:1596   */\n      0x20\n        /* \"#utility.yul\":1586:1590   */\n      dup2\n        /* \"#utility.yul\":1582:1597   */\n      add\n        /* \"#utility.yul\":1574:1597   */\n      swap1\n      pop\n        /* \"#utility.yul\":1296:1604   */\n      swap2\n      swap1\n      pop\n      jump\t// out\n        /* \"#utility.yul\":1610:1756   */\n    tag_33:\n        /* \"#utility.yul\":1707:1713   */\n      dup3\n        /* \"#utility.yul\":1702:1705   */\n      dup2\n        /* \"#utility.yul\":1697:1700   */\n      dup4\n        /* \"#utility.yul\":1684:1714   */\n      calldatacopy\n        /* \"#utility.yul\":1748:1749   */\n      0x00\n        /* \"#utility.yul\":1739:1745   */\n      dup4\n        /* \"#utility.yul\":1734:1737   */\n      dup4\n        /* \"#utility.yul\":1730:1746   */\n      add\n        /* \"#utility.yul\":1723:1750   */\n      mstore\n        /* \"#utility.yul\":1610:1756   */\n      pop\n      pop\n      pop\n      jump\t// out\n        /* \"#utility.yul\":1762:2187   */\n    tag_34:\n        /* \"#utility.yul\":1840:1845   */\n      0x00\n        /* \"#utility.yul\":1865:1931   */\n      tag_84\n        /* \"#utility.yul\":1881:1930   */\n      tag_85\n        /* \"#utility.yul\":1923:1929   */\n      dup5\n        /* \"#utility.yul\":1881:1930   */\n      tag_32\n      jump\t// in\n    tag_85:\n        /* \"#utility.yul\":1865:1931   */\n      tag_31\n      jump\t// in\n    tag_84:\n        /* \"#utility.yul\":1856:1931   */\n      swap1\n      pop\n        /* \"#utility.yul\":1954:1960   */\n      dup3\n        /* \"#utility.yul\":1947:1952   */\n      dup2\n        /* \"#utility.yul\":1940:1961   */\n      mstore\n        /* \"#utility.yul\":1992:1996   */\n      0x20\n        /* \"#utility.yul\":1985:1990   */\n      dup2\n        /* \"#utility.yul\":1981:1997   */\n      add\n        /* \"#utility.yul\":2030:2033   */\n      dup5\n        /* \"#utility.yul\":2021:2027   */\n      dup5\n        /* \"#utility.yul\":2016:2019   */\n      dup5\n        /* \"#utility.yul\":2012:2028   */\n      add\n        /* \"#utility.yul\":2009:2034   */\n      gt\n        /* \"#utility.yul\":2006:2118   */\n      iszero\n      tag_86\n      jumpi\n        /* \"#utility.yul\":2037:2116   */\n      tag_87\n      tag_27\n      jump\t// in\n    tag_87:\n        /* \"#utility.yul\":2006:2118   */\n    tag_86:\n        /* \"#utility.yul\":2127:2181   */\n      tag_88\n        /* \"#utility.yul\":2174:2180   */\n      dup5\n        /* \"#utility.yul\":2169:2172   */\n      dup3\n        /* \"#utility.yul\":2164:2167   */\n      dup6\n        /* \"#utility.yul\":2127:2181   */\n      tag_33\n      jump\t// in\n    tag_88:\n        /* \"#utility.yul\":1846:2187   */\n      pop\n        /* \"#utility.yul\":1762:2187   */\n      swap4\n      swap3\n      pop\n      pop\n      pop\n      jump\t// out\n        /* \"#utility.yul\":2207:2547   */\n    tag_35:\n        /* \"#utility.yul\":2263:2268   */\n      0x00\n        /* \"#utility.yul\":2312:2315   */\n      dup3\n        /* \"#utility.yul\":2305:2309   */\n      0x1f\n        /* \"#utility.yul\":2297:2303   */\n      dup4\n        /* \"#utility.yul\":2293:2310   */\n      add\n        /* \"#utility.yul\":2289:2316   */\n      slt\n        /* \"#utility.yul\":2279:2401   */\n      tag_90\n      jumpi\n        /* \"#utility.yul\":2320:2399   */\n      tag_91\n      tag_26\n      jump\t// in\n    tag_91:\n        /* \"#utility.yul\":2279:2401   */\n    tag_90:\n        /* \"#utility.yul\":2437:2443   */\n      dup2\n        /* \"#utility.yul\":2424:2444   */\n      calldataload\n        /* \"#utility.yul\":2462:2541   */\n      tag_92\n        /* \"#utility.yul\":2537:2540   */\n      dup5\n        /* \"#utility.yul\":2529:2535   */\n      dup3\n        /* \"#utility.yul\":2522:2526   */\n      0x20\n        /* \"#utility.yul\":2514:2520   */\n      dup7\n        /* \"#utility.yul\":2510:2527   */\n      add\n        /* \"#utility.yul\":2462:2541   */\n      tag_34\n      jump\t// in\n    tag_92:\n        /* \"#utility.yul\":2453:2541   */\n      swap2\n      pop\n        /* \"#utility.yul\":2269:2547   */\n      pop\n        /* \"#utility.yul\":2207:2547   */\n      swap3\n      swap2\n      pop\n      pop\n      jump\t// out\n        /* \"#utility.yul\":2553:2639   */\n    tag_36:\n        /* \"#utility.yul\":2588:2595   */\n      0x00\n        /* \"#utility.yul\":2628:2632   */\n      0xff\n        /* \"#utility.yul\":2621:2626   */\n      dup3\n        /* \"#utility.yul\":2617:2633   */\n      and\n        /* \"#utility.yul\":2606:2633   */\n      swap1\n      pop\n        /* \"#utility.yul\":2553:2639   */\n      swap2\n      swap1\n      pop\n      jump\t// out\n        /* \"#utility.yul\":2645:2763   */\n    tag_37:\n        /* \"#utility.yul\":2716:2738   */\n      tag_95\n        /* \"#utility.yul\":2732:2737   */\n      dup2\n        /* \"#utility.yul\":2716:2738   */\n      tag_36\n      jump\t// in\n    tag_95:\n        /* \"#utility.yul\":2709:2714   */\n      dup2\n        /* \"#utility.yul\":2706:2739   */\n      eq\n        /* \"#utility.yul\":2696:2757   */\n      tag_96\n      jumpi\n        /* \"#utility.yul\":2753:2754   */\n      0x00\n        /* \"#utility.yul\":2750:2751   */\n      dup1\n        /* \"#utility.yul\":2743:2755   */\n      revert\n        /* \"#utility.yul\":2696:2757   */\n    tag_96:\n        /* \"#utility.yul\":2645:2763   */\n      pop\n      jump\t// out\n        /* \"#utility.yul\":2769:2904   */\n    tag_38:\n        /* \"#utility.yul\":2813:2818   */\n      0x00\n        /* \"#utility.yul\":2851:2857   */\n      dup2\n        /* \"#utility.yul\":2838:2858   */\n      calldataload\n        /* \"#utility.yul\":2829:2858   */\n      swap1\n      pop\n        /* \"#utility.yul\":2867:2898   */\n      tag_98\n        /* \"#utility.yul\":2892:2897   */\n      dup2\n        /* \"#utility.yul\":2867:2898   */\n      tag_37\n      jump\t// in\n    tag_98:\n        /* \"#utility.yul\":2769:2904   */\n      swap3\n      swap2\n      pop\n      pop\n      jump\t// out\n        /* \"#utility.yul\":2910:3560   */\n    tag_7:\n        /* \"#utility.yul\":2986:2992   */\n      0x00\n        /* \"#utility.yul\":2994:3000   */\n      dup1\n        /* \"#utility.yul\":3043:3045   */\n      0x40\n        /* \"#utility.yul\":3031:3040   */\n      dup4\n        /* \"#utility.yul\":3022:3029   */\n      dup6\n        /* \"#utility.yul\":3018:3041   */\n      sub\n        /* \"#utility.yul\":3014:3046   */\n      slt\n        /* \"#utility.yul\":3011:3130   */\n      iszero\n      tag_100\n      jumpi\n        /* \"#utility.yul\":3049:3128   */\n      tag_101\n      tag_24\n      jump\t// in\n    tag_101:\n        /* \"#utility.yul\":3011:3130   */\n    tag_100:\n        /* \"#utility.yul\":3197:3198   */\n      0x00\n        /* \"#utility.yul\":3186:3195   */\n      dup4\n        /* \"#utility.yul\":3182:3199   */\n      add\n        /* \"#utility.yul\":3169:3200   */\n      calldataload\n        /* \"#utility.yul\":3227:3245   */\n      0xffffffffffffffff\n        /* \"#utility.yul\":3219:3225   */\n      dup2\n        /* \"#utility.yul\":3216:3246   */\n      gt\n        /* \"#utility.yul\":3213:3330   */\n      iszero\n      tag_102\n      jumpi\n        /* \"#utility.yul\":3249:3328   */\n      tag_103\n      tag_25\n      jump\t// in\n    tag_103:\n        /* \"#utility.yul\":3213:3330   */\n    tag_102:\n        /* \"#utility.yul\":3354:3417   */\n      tag_104\n        /* \"#utility.yul\":3409:3416   */\n      dup6\n        /* \"#utility.yul\":3400:3406   */\n      dup3\n        /* \"#utility.yul\":3389:3398   */\n      dup7\n        /* \"#utility.yul\":3385:3407   */\n      add\n        /* \"#utility.yul\":3354:3417   */\n      tag_35\n      jump\t// in\n    tag_104:\n        /* \"#utility.yul\":3344:3417   */\n      swap3\n      pop\n        /* \"#utility.yul\":3140:3427   */\n      pop\n        /* \"#utility.yul\":3466:3468   */\n      0x20\n        /* \"#utility.yul\":3492:3543   */\n      tag_105\n        /* \"#utility.yul\":3535:3542   */\n      dup6\n        /* \"#utility.yul\":3526:3532   */\n      dup3\n        /* \"#utility.yul\":3515:3524   */\n      dup7\n        /* \"#utility.yul\":3511:3533   */\n      add\n        /* \"#utility.yul\":3492:3543   */\n      tag_38\n      jump\t// in\n    tag_105:\n        /* \"#utility.yul\":3482:3543   */\n      swap2\n      pop\n        /* \"#utility.yul\":3437:3553   */\n      pop\n        /* \"#utility.yul\":2910:3560   */\n      swap3\n      pop\n      swap3\n      swap1\n      pop\n      jump\t// out\n        /* \"#utility.yul\":3566:3665   */\n    tag_39:\n        /* \"#utility.yul\":3618:3624   */\n      0x00\n        /* \"#utility.yul\":3652:3657   */\n      dup2\n        /* \"#utility.yul\":3646:3658   */\n      mload\n        /* \"#utility.yul\":3636:3658   */\n      swap1\n      pop\n        /* \"#utility.yul\":3566:3665   */\n      swap2\n      swap1\n      pop\n      jump\t// out\n        /* \"#utility.yul\":3671:3840   */\n    tag_40:\n        /* \"#utility.yul\":3755:3766   */\n      0x00\n        /* \"#utility.yul\":3789:3795   */\n      dup3\n        /* \"#utility.yul\":3784:3787   */\n      dup3\n        /* \"#utility.yul\":3777:3796   */\n      mstore\n        /* \"#utility.yul\":3829:3833   */\n      0x20\n        /* \"#utility.yul\":3824:3827   */\n      dup3\n        /* \"#utility.yul\":3820:3834   */\n      add\n        /* \"#utility.yul\":3805:3834   */\n      swap1\n      pop\n        /* \"#utility.yul\":3671:3840   */\n      swap3\n      swap2\n      pop\n      pop\n      jump\t// out\n        /* \"#utility.yul\":3846:4092   */\n    tag_41:\n        /* \"#utility.yul\":3927:3928   */\n      0x00\n        /* \"#utility.yul\":3937:4050   */\n    tag_109:\n        /* \"#utility.yul\":3951:3957   */\n      dup4\n        /* \"#utility.yul\":3948:3949   */\n      dup2\n        /* \"#utility.yul\":3945:3958   */\n      lt\n        /* \"#utility.yul\":3937:4050   */\n      iszero\n      tag_111\n      jumpi\n        /* \"#utility.yul\":4036:4037   */\n      dup1\n        /* \"#utility.yul\":4031:4034   */\n      dup3\n        /* \"#utility.yul\":4027:4038   */\n      add\n        /* \"#utility.yul\":4021:4039   */\n      mload\n        /* \"#utility.yul\":4017:4018   */\n      dup2\n        /* \"#utility.yul\":4012:4015   */\n      dup5\n        /* \"#utility.yul\":4008:4019   */\n      add\n        /* \"#utility.yul\":4001:4040   */\n      mstore\n        /* \"#utility.yul\":3973:3975   */\n      0x20\n        /* \"#utility.yul\":3970:3971   */\n      dup2\n        /* \"#utility.yul\":3966:3976   */\n      add\n        /* \"#utility.yul\":3961:3976   */\n      swap1\n      pop\n        /* \"#utility.yul\":3937:4050   */\n      jump(tag_109)\n    tag_111:\n        /* \"#utility.yul\":4084:4085   */\n      0x00\n        /* \"#utility.yul\":4075:4081   */\n      dup5\n        /* \"#utility.yul\":4070:4073   */\n      dup5\n        /* \"#utility.yul\":4066:4082   */\n      add\n        /* \"#utility.yul\":4059:4086   */\n      mstore\n        /* \"#utility.yul\":3908:4092   */\n      pop\n        /* \"#utility.yul\":3846:4092   */\n      pop\n      pop\n      pop\n      jump\t// out\n        /* \"#utility.yul\":4098:4475   */\n    tag_42:\n        /* \"#utility.yul\":4186:4189   */\n      0x00\n        /* \"#utility.yul\":4214:4253   */\n      tag_113\n        /* \"#utility.yul\":4247:4252   */\n      dup3\n        /* \"#utility.yul\":4214:4253   */\n      tag_39\n      jump\t// in\n    tag_113:\n        /* \"#utility.yul\":4269:4340   */\n      tag_114\n        /* \"#utility.yul\":4333:4339   */\n      dup2\n        /* \"#utility.yul\":4328:4331   */\n      dup6\n        /* \"#utility.yul\":4269:4340   */\n      tag_40\n      jump\t// in\n    tag_114:\n        /* \"#utility.yul\":4262:4340   */\n      swap4\n      pop\n        /* \"#utility.yul\":4349:4414   */\n      tag_115\n        /* \"#utility.yul\":4407:4413   */\n      dup2\n        /* \"#utility.yul\":4402:4405   */\n      dup6\n        /* \"#utility.yul\":4395:4399   */\n      0x20\n        /* \"#utility.yul\":4388:4393   */\n      dup7\n        /* \"#utility.yul\":4384:4400   */\n      add\n        /* \"#utility.yul\":4349:4414   */\n      tag_41\n      jump\t// in\n    tag_115:\n        /* \"#utility.yul\":4439:4468   */\n      tag_116\n        /* \"#utility.yul\":4461:4467   */\n      dup2\n        /* \"#utility.yul\":4439:4468   */\n      tag_28\n      jump\t// in\n    tag_116:\n        /* \"#utility.yul\":4434:4437   */\n      dup5\n        /* \"#utility.yul\":4430:4469   */\n      add\n        /* \"#utility.yul\":4423:4469   */\n      swap2\n      pop\n        /* \"#utility.yul\":4190:4475   */\n      pop\n        /* \"#utility.yul\":4098:4475   */\n      swap3\n      swap2\n      pop\n      pop\n      jump\t// out\n        /* \"#utility.yul\":4481:4593   */\n    tag_43:\n        /* \"#utility.yul\":4564:4586   */\n      tag_118\n        /* \"#utility.yul\":4580:4585   */\n      dup2\n        /* \"#utility.yul\":4564:4586   */\n      tag_36\n      jump\t// in\n    tag_118:\n        /* \"#utility.yul\":4559:4562   */\n      dup3\n        /* \"#utility.yul\":4552:4587   */\n      mstore\n        /* \"#utility.yul\":4481:4593   */\n      pop\n      pop\n      jump\t// out\n        /* \"#utility.yul\":4599:4689   */\n    tag_44:\n        /* \"#utility.yul\":4633:4640   */\n      0x00\n        /* \"#utility.yul\":4676:4681   */\n      dup2\n        /* \"#utility.yul\":4669:4682   */\n      iszero\n        /* \"#utility.yul\":4662:4683   */\n      iszero\n        /* \"#utility.yul\":4651:4683   */\n      swap1\n      pop\n        /* \"#utility.yul\":4599:4689   */\n      swap2\n      swap1\n      pop\n      jump\t// out\n        /* \"#utility.yul\":4695:4804   */\n    tag_45:\n        /* \"#utility.yul\":4776:4797   */\n      tag_121\n        /* \"#utility.yul\":4791:4796   */\n      dup2\n        /* \"#utility.yul\":4776:4797   */\n      tag_44\n      jump\t// in\n    tag_121:\n        /* \"#utility.yul\":4771:4774   */\n      dup3\n        /* \"#utility.yul\":4764:4798   */\n      mstore\n        /* \"#utility.yul\":4695:4804   */\n      pop\n      pop\n      jump\t// out\n        /* \"#utility.yul\":4810:5323   */\n    tag_12:\n        /* \"#utility.yul\":4969:4973   */\n      0x00\n        /* \"#utility.yul\":5007:5009   */\n      0x60\n        /* \"#utility.yul\":4996:5005   */\n      dup3\n        /* \"#utility.yul\":4992:5010   */\n      add\n        /* \"#utility.yul\":4984:5010   */\n      swap1\n      pop\n        /* \"#utility.yul\":5056:5065   */\n      dup2\n        /* \"#utility.yul\":5050:5054   */\n      dup2\n        /* \"#utility.yul\":5046:5066   */\n      sub\n        /* \"#utility.yul\":5042:5043   */\n      0x00\n        /* \"#utility.yul\":5031:5040   */\n      dup4\n        /* \"#utility.yul\":5027:5044   */\n      add\n        /* \"#utility.yul\":5020:5067   */\n      mstore\n        /* \"#utility.yul\":5084:5162   */\n      tag_123\n        /* \"#utility.yul\":5157:5161   */\n      dup2\n        /* \"#utility.yul\":5148:5154   */\n      dup7\n        /* \"#utility.yul\":5084:5162   */\n      tag_42\n      jump\t// in\n    tag_123:\n        /* \"#utility.yul\":5076:5162   */\n      swap1\n      pop\n        /* \"#utility.yul\":5172:5240   */\n      tag_124\n        /* \"#utility.yul\":5236:5238   */\n      0x20\n        /* \"#utility.yul\":5225:5234   */\n      dup4\n        /* \"#utility.yul\":5221:5239   */\n      add\n        /* \"#utility.yul\":5212:5218   */\n      dup6\n        /* \"#utility.yul\":5172:5240   */\n      tag_43\n      jump\t// in\n    tag_124:\n        /* \"#utility.yul\":5250:5316   */\n      tag_125\n        /* \"#utility.yul\":5312:5314   */\n      0x40\n        /* \"#utility.yul\":5301:5310   */\n      dup4\n        /* \"#utility.yul\":5297:5315   */\n      add\n        /* \"#utility.yul\":5288:5294   */\n      dup5\n        /* \"#utility.yul\":5250:5316   */\n      tag_45\n      jump\t// in\n    tag_125:\n        /* \"#utility.yul\":4810:5323   */\n      swap5\n      swap4\n      pop\n      pop\n      pop\n      pop\n      jump\t// out\n        /* \"#utility.yul\":5329:5509   */\n    tag_46:\n        /* \"#utility.yul\":5377:5454   */\n      0x4e487b7100000000000000000000000000000000000000000000000000000000\n        /* \"#utility.yul\":5374:5375   */\n      0x00\n        /* \"#utility.yul\":5367:5455   */\n      mstore\n        /* \"#utility.yul\":5474:5478   */\n      0x22\n        /* \"#utility.yul\":5471:5472   */\n      0x04\n        /* \"#utility.yul\":5464:5479   */\n      mstore\n        /* \"#utility.yul\":5498:5502   */\n      0x24\n        /* \"#utility.yul\":5495:5496   */\n      0x00\n        /* \"#utility.yul\":5488:5503   */\n      revert\n        /* \"#utility.yul\":5515:5835   */\n    tag_18:\n        /* \"#utility.yul\":5559:5565   */\n      0x00\n        /* \"#utility.yul\":5596:5597   */\n      0x02\n        /* \"#utility.yul\":5590:5594   */\n      dup3\n        /* \"#utility.yul\":5586:5598   */\n      div\n        /* \"#utility.yul\":5576:5598   */\n      swap1\n      pop\n        /* \"#utility.yul\":5643:5644   */\n      0x01\n        /* \"#utility.yul\":5637:5641   */\n      dup3\n        /* \"#utility.yul\":5633:5645   */\n      and\n        /* \"#utility.yul\":5664:5682   */\n      dup1\n        /* \"#utility.yul\":5654:5735   */\n      tag_128\n      jumpi\n        /* \"#utility.yul\":5720:5724   */\n      0x7f\n        /* \"#utility.yul\":5712:5718   */\n      dup3\n        /* \"#utility.yul\":5708:5725   */\n      and\n        /* \"#utility.yul\":5698:5725   */\n      swap2\n      pop\n        /* \"#utility.yul\":5654:5735   */\n    tag_128:\n        /* \"#utility.yul\":5782:5784   */\n      0x20\n        /* \"#utility.yul\":5774:5780   */\n      dup3\n        /* \"#utility.yul\":5771:5785   */\n      lt\n        /* \"#utility.yul\":5751:5769   */\n      dup2\n        /* \"#utility.yul\":5748:5786   */\n      sub\n        /* \"#utility.yul\":5745:5829   */\n      tag_129\n      jumpi\n        /* \"#utility.yul\":5801:5819   */\n      tag_130\n      tag_46\n      jump\t// in\n    tag_130:\n        /* \"#utility.yul\":5745:5829   */\n    tag_129:\n        /* \"#utility.yul\":5566:5835   */\n      pop\n        /* \"#utility.yul\":5515:5835   */\n      swap2\n      swap1\n      pop\n      jump\t// out\n        /* \"#utility.yul\":5841:5982   */\n    tag_47:\n        /* \"#utility.yul\":5890:5894   */\n      0x00\n        /* \"#utility.yul\":5913:5916   */\n      dup2\n        /* \"#utility.yul\":5905:5916   */\n      swap1\n      pop\n        /* \"#utility.yul\":5936:5939   */\n      dup2\n        /* \"#utility.yul\":5933:5934   */\n      0x00\n        /* \"#utility.yul\":5926:5940   */\n      mstore\n        /* \"#utility.yul\":5970:5974   */\n      0x20\n        /* \"#utility.yul\":5967:5968   */\n      0x00\n        /* \"#utility.yul\":5957:5975   */\n      keccak256\n        /* \"#utility.yul\":5949:5975   */\n      swap1\n      pop\n        /* \"#utility.yul\":5841:5982   */\n      swap2\n      swap1\n      pop\n      jump\t// out\n        /* \"#utility.yul\":5988:6081   */\n    tag_48:\n        /* \"#utility.yul\":6025:6031   */\n      0x00\n        /* \"#utility.yul\":6072:6074   */\n      0x20\n        /* \"#utility.yul\":6067:6069   */\n      0x1f\n        /* \"#utility.yul\":6060:6065   */\n      dup4\n        /* \"#utility.yul\":6056:6070   */\n      add\n        /* \"#utility.yul\":6052:6075   */\n      div\n        /* \"#utility.yul\":6042:6075   */\n      swap1\n      pop\n        /* \"#utility.yul\":5988:6081   */\n      swap2\n      swap1\n      pop\n      jump\t// out\n        /* \"#utility.yul\":6087:6194   */\n    tag_49:\n        /* \"#utility.yul\":6131:6139   */\n      0x00\n        /* \"#utility.yul\":6181:6186   */\n      dup3\n        /* \"#utility.yul\":6175:6179   */\n      dup3\n        /* \"#utility.yul\":6171:6187   */\n      shl\n        /* \"#utility.yul\":6150:6187   */\n      swap1\n      pop\n        /* \"#utility.yul\":6087:6194   */\n      swap3\n      swap2\n      pop\n      pop\n      jump\t// out\n        /* \"#utility.yul\":6200:6593   */\n    tag_50:\n        /* \"#utility.yul\":6269:6275   */\n      0x00\n        /* \"#utility.yul\":6319:6320   */\n      0x08\n        /* \"#utility.yul\":6307:6317   */\n      dup4\n        /* \"#utility.yul\":6303:6321   */\n      mul\n        /* \"#utility.yul\":6342:6439   */\n      tag_135\n        /* \"#utility.yul\":6372:6438   */\n      0xffffffffffffffffffffffffffffffffffffffffffffffffffffffffffffffff\n        /* \"#utility.yul\":6361:6370   */\n      dup3\n        /* \"#utility.yul\":6342:6439   */\n      tag_49\n      jump\t// in\n    tag_135:\n        /* \"#utility.yul\":6460:6499   */\n      tag_136\n        /* \"#utility.yul\":6490:6498   */\n      dup7\n        /* \"#utility.yul\":6479:6488   */\n      dup4\n        /* \"#utility.yul\":6460:6499   */\n      tag_49\n      jump\t// in\n    tag_136:\n        /* \"#utility.yul\":6448:6499   */\n      swap6\n      pop\n        /* \"#utility.yul\":6532:6536   */\n      dup1\n        /* \"#utility.yul\":6528:6537   */\n      not\n        /* \"#utility.yul\":6521:6526   */\n      dup5\n        /* \"#utility.yul\":6517:6538   */\n      and\n        /* \"#utility.yul\":6508:6538   */\n      swap4\n      pop\n        /* \"#utility.yul\":6581:6585   */\n      dup1\n        /* \"#utility.yul\":6571:6579   */\n      dup7\n        /* \"#utility.yul\":6567:6586   */\n      and\n        /* \"#utility.yul\":6560:6565   */\n      dup5\n        /* \"#utility.yul\":6557:6587   */\n      or\n        /* \"#utility.yul\":6547:6587   */\n      swap3\n      pop\n        /* \"#utility.yul\":6276:6593   */\n      pop\n      pop\n        /* \"#utility.yul\":6200:6593   */\n      swap4\n      swap3\n      pop\n      pop\n      pop\n      jump\t// out\n        /* \"#utility.yul\":6599:6676   */\n    tag_51:\n        /* \"#utility.yul\":6636:6643   */\n      0x00\n        /* \"#utility.yul\":6665:6670   */\n      dup2\n        /* \"#utility.yul\":6654:6670   */\n      swap1\n      pop\n        /* \"#utility.yul\":6599:6676   */\n      swap2\n      swap1\n      pop\n      jump\t// out\n        /* \"#utility.yul\":6682:6742   */\n    tag_52:\n        /* \"#utility.yul\":6710:6713   */\n      0x00\n        /* \"#utility.yul\":6731:6736   */\n      dup2\n        /* \"#utility.yul\":6724:6736   */\n      swap1\n      pop\n        /* \"#utility.yul\":6682:6742   */\n      swap2\n      swap1\n      pop\n      jump\t// out\n        /* \"#utility.yul\":6748:6890   */\n    tag_53:\n        /* \"#utility.yul\":6798:6807   */\n      0x00\n        /* \"#utility.yul\":6831:6884   */\n      tag_140\n        /* \"#utility.yul\":6849:6883   */\n      tag_141\n        /* \"#utility.yul\":6858:6882   */\n      tag_142\n        /* \"#utility.yul\":6876:6881   */\n      dup5\n        /* \"#utility.yul\":6858:6882   */\n      tag_51\n      jump\t// in\n    tag_142:\n        /* \"#utility.yul\":6849:6883   */\n      tag_52\n      jump\t// in\n    tag_141:\n        /* \"#utility.yul\":6831:6884   */\n      tag_51\n      jump\t// in\n    tag_140:\n        /* \"#utility.yul\":6818:6884   */\n      swap1\n      pop\n        /* \"#utility.yul\":6748:6890   */\n      swap2\n      swap1\n      pop\n      jump\t// out\n        /* \"#utility.yul\":6896:6971   */\n    tag_54:\n        /* \"#utility.yul\":6939:6942   */\n      0x00\n        /* \"#utility.yul\":6960:6965   */\n      dup2\n        /* \"#utility.yul\":6953:6965   */\n      swap1\n      pop\n        /* \"#utility.yul\":6896:6971   */\n      swap2\n      swap1\n      pop\n      jump\t// out\n        /* \"#utility.yul\":6977:7246   */\n    tag_55:\n        /* \"#utility.yul\":7087:7126   */\n      tag_145\n        /* \"#utility.yul\":7118:7125   */\n      dup4\n        /* \"#utility.yul\":7087:7126   */\n      tag_53\n      jump\t// in\n    tag_145:\n        /* \"#utility.yul\":7148:7239   */\n      tag_146\n        /* \"#utility.yul\":7197:7238   */\n      tag_147\n        /* \"#utility.yul\":7221:7237   */\n      dup3\n        /* \"#utility.yul\":7197:7238   */\n      tag_54\n      jump\t// in\n    tag_147:\n        /* \"#utility.yul\":7189:7195   */\n      dup5\n        /* \"#utility.yul\":7182:7186   */\n      dup5\n        /* \"#utility.yul\":7176:7187   */\n      sload\n        /* \"#utility.yul\":7148:7239   */\n      tag_50\n      jump\t// in\n    tag_146:\n        /* \"#utility.yul\":7142:7146   */\n      dup3\n        /* \"#utility.yul\":7135:7240   */\n      sstore\n        /* \"#utility.yul\":7053:7246   */\n      pop\n        /* \"#utility.yul\":6977:7246   */\n      pop\n      pop\n      pop\n      jump\t// out\n        /* \"#utility.yul\":7252:7325   */\n    tag_56:\n        /* \"#utility.yul\":7297:7300   */\n      0x00\n        /* \"#utility.yul\":7252:7325   */\n      swap1\n      jump\t// out\n        /* \"#utility.yul\":7331:7520   */\n    tag_57:\n        /* \"#utility.yul\":7408:7440   */\n      tag_150\n      tag_56\n      jump\t// in\n    tag_150:\n        /* \"#utility.yul\":7449:7514   */\n      tag_151\n        /* \"#utility.yul\":7507:7513   */\n      dup2\n        /* \"#utility.yul\":7499:7505   */\n      dup5\n        /* \"#utility.yul\":7493:7497   */\n      dup5\n        /* \"#utility.yul\":7449:7514   */\n      tag_55\n      jump\t// in\n    tag_151:\n        /* \"#utility.yul\":7384:7520   */\n      pop\n        /* \"#utility.yul\":7331:7520   */\n      pop\n      pop\n      jump\t// out\n        /* \"#utility.yul\":7526:7712   */\n    tag_58:\n        /* \"#utility.yul\":7586:7706   */\n    tag_153:\n        /* \"#utility.yul\":7603:7606   */\n      dup2\n        /* \"#utility.yul\":7596:7601   */\n      dup2\n        /* \"#utility.yul\":7593:7607   */\n      lt\n        /* \"#utility.yul\":7586:7706   */\n      iszero\n      tag_155\n      jumpi\n        /* \"#utility.yul\":7657:7696   */\n      tag_156\n        /* \"#utility.yul\":7694:7695   */\n      0x00\n        /* \"#utility.yul\":7687:7692   */\n      dup3\n        /* \"#utility.yul\":7657:7696   */\n      tag_57\n      jump\t// in\n    tag_156:\n        /* \"#utility.yul\":7630:7631   */\n      0x01\n        /* \"#utility.yul\":7623:7628   */\n      dup2\n        /* \"#utility.yul\":7619:7632   */\n      add\n        /* \"#utility.yul\":7610:7632   */\n      swap1\n      pop\n        /* \"#utility.yul\":7586:7706   */\n      jump(tag_153)\n    tag_155:\n        /* \"#utility.yul\":7526:7712   */\n      pop\n      pop\n      jump\t// out\n        /* \"#utility.yul\":7718:8261   */\n    tag_59:\n        /* \"#utility.yul\":7819:7821   */\n      0x1f\n        /* \"#utility.yul\":7814:7817   */\n      dup3\n        /* \"#utility.yul\":7811:7822   */\n      gt\n        /* \"#utility.yul\":7808:8254   */\n      iszero\n      tag_158\n      jumpi\n        /* \"#utility.yul\":7853:7891   */\n      tag_159\n        /* \"#utility.yul\":7885:7890   */\n      dup2\n        /* \"#utility.yul\":7853:7891   */\n      tag_47\n      jump\t// in\n    tag_159:\n        /* \"#utility.yul\":7937:7966   */\n      tag_160\n        /* \"#utility.yul\":7955:7965   */\n      dup5\n        /* \"#utility.yul\":7937:7966   */\n      tag_48\n      jump\t// in\n    tag_160:\n        /* \"#utility.yul\":7927:7935   */\n      dup2\n        /* \"#utility.yul\":7923:7967   */\n      add\n        /* \"#utility.yul\":8120:8122   */\n      0x20\n        /* \"#utility.yul\":8108:8118   */\n      dup6\n        /* \"#utility.yul\":8105:8123   */\n      lt\n        /* \"#utility.yul\":8102:8151   */\n      iszero\n      tag_161\n      jumpi\n        /* \"#utility.yul\":8141:8149   */\n      dup2\n        /* \"#utility.yul\":8126:8149   */\n      swap1\n      pop\n        /* \"#utility.yul\":8102:8151   */\n    tag_161:\n        /* \"#utility.yul\":8164:8244   */\n      tag_162\n        /* \"#utility.yul\":8220:8242   */\n      tag_163\n        /* \"#utility.yul\":8238:8241   */\n      dup6\n        /* \"#utility.yul\":8220:8242   */\n      tag_48\n      jump\t// in\n    tag_163:\n        /* \"#utility.yul\":8210:8218   */\n      dup4\n        /* \"#utility.yul\":8206:8243   */\n      add\n        /* \"#utility.yul\":8193:8204   */\n      dup3\n        /* \"#utility.yul\":8164:8244   */\n      tag_58\n      jump\t// in\n    tag_162:\n        /* \"#utility.yul\":7823:8254   */\n      pop\n      pop\n        /* \"#utility.yul\":7808:8254   */\n    tag_158:\n        /* \"#utility.yul\":7718:8261   */\n      pop\n      pop\n      pop\n      jump\t// out\n        /* \"#utility.yul\":8267:8384   */\n    tag_60:\n        /* \"#utility.yul\":8321:8329   */\n      0x00\n        /* \"#utility.yul\":8371:8376   */\n      dup3\n        /* \"#utility.yul\":8365:8369   */\n      dup3\n        /* \"#utility.yul\":8361:8377   */\n      shr\n        /* \"#utility.yul\":8340:8377   */\n      swap1\n      pop\n        /* \"#utility.yul\":8267:8384   */\n      swap3\n      swap2\n      pop\n      pop\n      jump\t// out\n        /* \"#utility.yul\":8390:8559   */\n    tag_61:\n        /* \"#utility.yul\":8434:8440   */\n      0x00\n        /* \"#utility.yul\":8467:8518   */\n      tag_166\n        /* \"#utility.yul\":8515:8516   */\n      0x00\n        /* \"#utility.yul\":8511:8517   */\n      not\n        /* \"#utility.yul\":8503:8508   */\n      dup5\n        /* \"#utility.yul\":8500:8501   */\n      0x08\n        /* \"#utility.yul\":8496:8509   */\n      mul\n        /* \"#utility.yul\":8467:8518   */\n      tag_60\n      jump\t// in\n    tag_166:\n        /* \"#utility.yul\":8463:8519   */\n      not\n        /* \"#utility.yul\":8548:8552   */\n      dup1\n        /* \"#utility.yul\":8542:8546   */\n      dup4\n        /* \"#utility.yul\":8538:8553   */\n      and\n        /* \"#utility.yul\":8528:8553   */\n      swap2\n      pop\n        /* \"#utility.yul\":8441:8559   */\n      pop\n        /* \"#utility.yul\":8390:8559   */\n      swap3\n      swap2\n      pop\n      pop\n      jump\t// out\n        /* \"#utility.yul\":8564:8859   */\n    tag_62:\n        /* \"#utility.yul\":8640:8644   */\n      0x00\n        /* \"#utility.yul\":8786:8815   */\n      tag_168\n        /* \"#utility.yul\":8811:8814   */\n      dup4\n        /* \"#utility.yul\":8805:8809   */\n      dup4\n        /* \"#utility.yul\":8786:8815   */\n      tag_61\n      jump\t// in\n    tag_168:\n        /* \"#utility.yul\":8778:8815   */\n      swap2\n      pop\n        /* \"#utility.yul\":8848:8851   */\n      dup3\n        /* \"#utility.yul\":8845:8846   */\n      0x02\n        /* \"#utility.yul\":8841:8852   */\n      mul\n        /* \"#utility.yul\":8835:8839   */\n      dup3\n        /* \"#utility.yul\":8832:8853   */\n      or\n        /* \"#utility.yul\":8824:8853   */\n      swap1\n      pop\n        /* \"#utility.yul\":8564:8859   */\n      swap3\n      swap2\n      pop\n      pop\n      jump\t// out\n        /* \"#utility.yul\":8864:10259   */\n    tag_15:\n        /* \"#utility.yul\":8981:9018   */\n      tag_170\n        /* \"#utility.yul\":9014:9017   */\n      dup3\n        /* \"#utility.yul\":8981:9018   */\n      tag_39\n      jump\t// in\n    tag_170:\n        /* \"#utility.yul\":9083:9101   */\n      0xffffffffffffffff\n        /* \"#utility.yul\":9075:9081   */\n      dup2\n        /* \"#utility.yul\":9072:9102   */\n      gt\n        /* \"#utility.yul\":9069:9125   */\n      iszero\n      tag_171\n      jumpi\n        /* \"#utility.yul\":9105:9123   */\n      tag_172\n      tag_29\n      jump\t// in\n    tag_172:\n        /* \"#utility.yul\":9069:9125   */\n    tag_171:\n        /* \"#utility.yul\":9149:9187   */\n      tag_173\n        /* \"#utility.yul\":9181:9185   */\n      dup3\n        /* \"#utility.yul\":9175:9186   */\n      sload\n        /* \"#utility.yul\":9149:9187   */\n      tag_18\n      jump\t// in\n    tag_173:\n        /* \"#utility.yul\":9234:9301   */\n      tag_174\n        /* \"#utility.yul\":9294:9300   */\n      dup3\n        /* \"#utility.yul\":9286:9292   */\n      dup3\n        /* \"#utility.yul\":9280:9284   */\n      dup6\n        /* \"#utility.yul\":9234:9301   */\n      tag_59\n      jump\t// in\n    tag_174:\n        /* \"#utility.yul\":9328:9329   */\n      0x00\n        /* \"#utility.yul\":9352:9356   */\n      0x20\n        /* \"#utility.yul\":9339:9356   */\n      swap1\n      pop\n        /* \"#utility.yul\":9384:9386   */\n      0x1f\n        /* \"#utility.yul\":9376:9382   */\n      dup4\n        /* \"#utility.yul\":9373:9387   */\n      gt\n        /* \"#utility.yul\":9401:9402   */\n      0x01\n        /* \"#utility.yul\":9396:10014   */\n      dup2\n      eq\n      tag_176\n      jumpi\n        /* \"#utility.yul\":10058:10059   */\n      0x00\n        /* \"#utility.yul\":10075:10081   */\n      dup5\n        /* \"#utility.yul\":10072:10149   */\n      iszero\n      tag_177\n      jumpi\n        /* \"#utility.yul\":10124:10133   */\n      dup3\n        /* \"#utility.yul\":10119:10122   */\n      dup8\n        /* \"#utility.yul\":10115:10134   */\n      add\n        /* \"#utility.yul\":10109:10135   */\n      mload\n        /* \"#utility.yul\":10100:10135   */\n      swap1\n      pop\n        /* \"#utility.yul\":10072:10149   */\n    tag_177:\n        /* \"#utility.yul\":10175:10242   */\n      tag_178\n        /* \"#utility.yul\":10235:10241   */\n      dup6\n        /* \"#utility.yul\":10228:10233   */\n      dup3\n        /* \"#utility.yul\":10175:10242   */\n      tag_62\n      jump\t// in\n    tag_178:\n        /* \"#utility.yul\":10169:10173   */\n      dup7\n        /* \"#utility.yul\":10162:10243   */\n      sstore\n        /* \"#utility.yul\":10031:10253   */\n      pop\n        /* \"#utility.yul\":9366:10253   */\n      jump(tag_175)\n        /* \"#utility.yul\":9396:10014   */\n    tag_176:\n        /* \"#utility.yul\":9448:9452   */\n      0x1f\n        /* \"#utility.yul\":9444:9453   */\n      not\n        /* \"#utility.yul\":9436:9442   */\n      dup5\n        /* \"#utility.yul\":9432:9454   */\n      and\n        /* \"#utility.yul\":9482:9519   */\n      tag_179\n        /* \"#utility.yul\":9514:9518   */\n      dup7\n        /* \"#utility.yul\":9482:9519   */\n      tag_47\n      jump\t// in\n    tag_179:\n        /* \"#utility.yul\":9541:9542   */\n      0x00\n        /* \"#utility.yul\":9555:9763   */\n    tag_180:\n        /* \"#utility.yul\":9569:9576   */\n      dup3\n        /* \"#utility.yul\":9566:9567   */\n      dup2\n        /* \"#utility.yul\":9563:9577   */\n      lt\n        /* \"#utility.yul\":9555:9763   */\n      iszero\n      tag_182\n      jumpi\n        /* \"#utility.yul\":9648:9657   */\n      dup5\n        /* \"#utility.yul\":9643:9646   */\n      dup10\n        /* \"#utility.yul\":9639:9658   */\n      add\n        /* \"#utility.yul\":9633:9659   */\n      mload\n        /* \"#utility.yul\":9625:9631   */\n      dup3\n        /* \"#utility.yul\":9618:9660   */\n      sstore\n        /* \"#utility.yul\":9699:9700   */\n      0x01\n        /* \"#utility.yul\":9691:9697   */\n      dup3\n        /* \"#utility.yul\":9687:9701   */\n      add\n        /* \"#utility.yul\":9677:9701   */\n      swap2\n      pop\n        /* \"#utility.yul\":9746:9748   */\n      0x20\n        /* \"#utility.yul\":9735:9744   */\n      dup6\n        /* \"#utility.yul\":9731:9749   */\n      add\n        /* \"#utility.yul\":9718:9749   */\n      swap5\n      pop\n        /* \"#utility.yul\":9592:9596   */\n      0x20\n        /* \"#utility.yul\":9589:9590   */\n      dup2\n        /* \"#utility.yul\":9585:9597   */\n      add\n        /* \"#utility.yul\":9580:9597   */\n      swap1\n      pop\n        /* \"#utility.yul\":9555:9763   */\n      jump(tag_180)\n    tag_182:\n        /* \"#utility.yul\":9791:9797   */\n      dup7\n        /* \"#utility.yul\":9782:9789   */\n      dup4\n        /* \"#utility.yul\":9779:9798   */\n      lt\n        /* \"#utility.yul\":9776:9955   */\n      iszero\n      tag_183\n      jumpi\n        /* \"#utility.yul\":9849:9858   */\n      dup5\n        /* \"#utility.yul\":9844:9847   */\n      dup10\n        /* \"#utility.yul\":9840:9859   */\n      add\n        /* \"#utility.yul\":9834:9860   */\n      mload\n        /* \"#utility.yul\":9892:9940   */\n      tag_184\n        /* \"#utility.yul\":9934:9938   */\n      0x1f\n        /* \"#utility.yul\":9926:9932   */\n      dup10\n        /* \"#utility.yul\":9922:9939   */\n      and\n        /* \"#utility.yul\":9911:9920   */\n      dup3\n        /* \"#utility.yul\":9892:9940   */\n      tag_61\n      jump\t// in\n    tag_184:\n        /* \"#utility.yul\":9884:9890   */\n      dup4\n        /* \"#utility.yul\":9877:9941   */\n      sstore\n        /* \"#utility.yul\":9799:9955   */\n      pop\n        /* \"#utility.yul\":9776:9955   */\n    tag_183:\n        /* \"#utility.yul\":10001:10002   */\n      0x01\n        /* \"#utility.yul\":9997:9998   */\n      0x02\n        /* \"#utility.yul\":9989:9995   */\n      dup9\n        /* \"#utility.yul\":9985:9999   */\n      mul\n        /* \"#utility.yul\":9981:10003   */\n      add\n        /* \"#utility.yul\":9975:9979   */\n      dup9\n        /* \"#utility.yul\":9968:10004   */\n      sstore\n        /* \"#utility.yul\":9403:10014   */\n      pop\n      pop\n      pop\n        /* \"#utility.yul\":9366:10253   */\n    tag_175:\n      pop\n        /* \"#utility.yul\":8956:10259   */\n      pop\n      pop\n      pop\n        /* \"#utility.yul\":8864:10259   */\n      pop\n      pop\n      jump\t// out\n\n    auxdata: 0xa2646970667358221220cf52c0387fbbde26c81a409d8bd178d05412ccc2eb5aa512fbbcdbf3bb5a006d64736f6c63430008160033\n}\n",
				"bytecode": {
					"linkReferences": {},
					"object": "608060405260018060016101000a81548160ff021916908315150217905550348015610029575f80fd5b5061071c806100375f395ff3fe608060405234801561000f575f80fd5b5060043610610034575f3560e01c806357d9190b146100385780636d4ce63c14610054575b5f80fd5b610052600480360381019061004d91906102db565b610074565b005b61005c6100a1565b60405161006b939291906103d8565b60405180910390f35b815f90816100829190610617565b508060015f6101000a81548160ff021916908360ff1602179055505050565b60605f805f60015f9054906101000a900460ff1660018054906101000a900460ff168280546100cf90610441565b80601f01602080910402602001604051908101604052809291908181526020018280546100fb90610441565b80156101465780601f1061011d57610100808354040283529160200191610146565b820191905f5260205f20905b81548152906001019060200180831161012957829003601f168201915b50505050509250925092509250909192565b5f604051905090565b5f80fd5b5f80fd5b5f80fd5b5f80fd5b5f601f19601f8301169050919050565b7f4e487b71000000000000000000000000000000000000000000000000000000005f52604160045260245ffd5b6101b782610171565b810181811067ffffffffffffffff821117156101d6576101d5610181565b5b80604052505050565b5f6101e8610158565b90506101f482826101ae565b919050565b5f67ffffffffffffffff82111561021357610212610181565b5b61021c82610171565b9050602081019050919050565b828183375f83830152505050565b5f610249610244846101f9565b6101df565b9050828152602081018484840111156102655761026461016d565b5b610270848285610229565b509392505050565b5f82601f83011261028c5761028b610169565b5b813561029c848260208601610237565b91505092915050565b5f60ff82169050919050565b6102ba816102a5565b81146102c4575f80fd5b50565b5f813590506102d5816102b1565b92915050565b5f80604083850312156102f1576102f0610161565b5b5f83013567ffffffffffffffff81111561030e5761030d610165565b5b61031a85828601610278565b925050602061032b858286016102c7565b9150509250929050565b5f81519050919050565b5f82825260208201905092915050565b5f5b8381101561036c578082015181840152602081019050610351565b5f8484015250505050565b5f61038182610335565b61038b818561033f565b935061039b81856020860161034f565b6103a481610171565b840191505092915050565b6103b8816102a5565b82525050565b5f8115159050919050565b6103d2816103be565b82525050565b5f6060820190508181035f8301526103f08186610377565b90506103ff60208301856103af565b61040c60408301846103c9565b949350505050565b7f4e487b71000000000000000000000000000000000000000000000000000000005f52602260045260245ffd5b5f600282049050600182168061045857607f821691505b60208210810361046b5761046a610414565b5b50919050565b5f819050815f5260205f209050919050565b5f6020601f8301049050919050565b5f82821b905092915050565b5f600883026104cd7fffffffffffffffffffffffffffffffffffffffffffffffffffffffffffffffff82610492565b6104d78683610492565b95508019841693508086168417925050509392505050565b5f819050919050565b5f819050919050565b5f61051b610516610511846104ef565b6104f8565b6104ef565b9050919050565b5f819050919050565b61053483610501565b61054861054082610522565b84845461049e565b825550505050565b5f90565b61055c610550565b61056781848461052b565b505050565b5b8181101561058a5761057f5f82610554565b60018101905061056d565b5050565b601f8211156105cf576105a081610471565b6105a984610483565b810160208510156105b8578190505b6105cc6105c485610483565b83018261056c565b50505b505050565b5f82821c905092915050565b5f6105ef5f19846008026105d4565b1980831691505092915050565b5f61060783836105e0565b9150826002028217905092915050565b61062082610335565b67ffffffffffffffff81111561063957610638610181565b5b6106438254610441565b61064e82828561058e565b5f60209050601f83116001811461067f575f841561066d578287015190505b61067785826105fc565b8655506106de565b601f19841661068d86610471565b5f5b828110156106b45784890151825560018201915060208501945060208101905061068f565b868310156106d157848901516106cd601f8916826105e0565b8355505b6001600288020188555050505b50505050505056fea2646970667358221220cf52c0387fbbde26c81a409d8bd178d05412ccc2eb5aa512fbbcdbf3bb5a006d64736f6c63430008160033",
					"opcodes": "PUSH1 0x80 PUSH1 0x40 MSTORE PUSH1 0x1 DUP1 PUSH1 0x1 PUSH2 0x100 EXP DUP2 SLOAD DUP2 PUSH1 0xFF MUL NOT AND SWAP1 DUP4 ISZERO ISZERO MUL OR SWAP1 SSTORE POP CALLVALUE DUP1 ISZERO PUSH2 0x29 JUMPI PUSH0 DUP1 REVERT JUMPDEST POP PUSH2 0x71C DUP1 PUSH2 0x37 PUSH0 CODECOPY PUSH0 RETURN INVALID PUSH1 0x80 PUSH1 0x40 MSTORE CALLVALUE DUP1 ISZERO PUSH2 0xF JUMPI PUSH0 DUP1 REVERT JUMPDEST POP PUSH1 0x4 CALLDATASIZE LT PUSH2 0x34 JUMPI PUSH0 CALLDATALOAD PUSH1 0xE0 SHR DUP1 PUSH4 0x57D9190B EQ PUSH2 0x38 JUMPI DUP1 PUSH4 0x6D4CE63C EQ PUSH2 0x54 JUMPI JUMPDEST PUSH0 DUP1 REVERT JUMPDEST PUSH2 0x52 PUSH1 0x4 DUP1 CALLDATASIZE SUB DUP2 ADD SWAP1 PUSH2 0x4D SWAP2 SWAP1 PUSH2 0x2DB JUMP JUMPDEST PUSH2 0x74 JUMP JUMPDEST STOP JUMPDEST PUSH2 0x5C PUSH2 0xA1 JUMP JUMPDEST PUSH1 0x40 MLOAD PUSH2 0x6B SWAP4 SWAP3 SWAP2 SWAP1 PUSH2 0x3D8 JUMP JUMPDEST PUSH1 0x40 MLOAD DUP1 SWAP2 SUB SWAP1 RETURN JUMPDEST DUP2 PUSH0 SWAP1 DUP2 PUSH2 0x82 SWAP2 SWAP1 PUSH2 0x617 JUMP JUMPDEST POP DUP1 PUSH1 0x1 PUSH0 PUSH2 0x100 EXP DUP2 SLOAD DUP2 PUSH1 0xFF MUL NOT AND SWAP1 DUP4 PUSH1 0xFF AND MUL OR SWAP1 SSTORE POP POP POP JUMP JUMPDEST PUSH1 0x60 PUSH0 DUP1 PUSH0 PUSH1 0x1 PUSH0 SWAP1 SLOAD SWAP1 PUSH2 0x100 EXP SWAP1 DIV PUSH1 0xFF AND PUSH1 0x1 DUP1 SLOAD SWAP1 PUSH2 0x100 EXP SWAP1 DIV PUSH1 0xFF AND DUP3 DUP1 SLOAD PUSH2 0xCF SWAP1 PUSH2 0x441 JUMP JUMPDEST DUP1 PUSH1 0x1F ADD PUSH1 0x20 DUP1 SWAP2 DIV MUL PUSH1 0x20 ADD PUSH1 0x40 MLOAD SWAP1 DUP2 ADD PUSH1 0x40 MSTORE DUP1 SWAP3 SWAP2 SWAP1 DUP2 DUP2 MSTORE PUSH1 0x20 ADD DUP3 DUP1 SLOAD PUSH2 0xFB SWAP1 PUSH2 0x441 JUMP JUMPDEST DUP1 ISZERO PUSH2 0x146 JUMPI DUP1 PUSH1 0x1F LT PUSH2 0x11D JUMPI PUSH2 0x100 DUP1 DUP4 SLOAD DIV MUL DUP4 MSTORE SWAP2 PUSH1 0x20 ADD SWAP2 PUSH2 0x146 JUMP JUMPDEST DUP3 ADD SWAP2 SWAP1 PUSH0 MSTORE PUSH1 0x20 PUSH0 KECCAK256 SWAP1 JUMPDEST DUP2 SLOAD DUP2 MSTORE SWAP1 PUSH1 0x1 ADD SWAP1 PUSH1 0x20 ADD DUP1 DUP4 GT PUSH2 0x129 JUMPI DUP3 SWAP1 SUB PUSH1 0x1F AND DUP3 ADD SWAP2 JUMPDEST POP POP POP POP POP SWAP3 POP SWAP3 POP SWAP3 POP SWAP3 POP SWAP1 SWAP2 SWAP3 JUMP JUMPDEST PUSH0 PUSH1 0x40 MLOAD SWAP1 POP SWAP1 JUMP JUMPDEST PUSH0 DUP1 REVERT JUMPDEST PUSH0 DUP1 REVERT JUMPDEST PUSH0 DUP1 REVERT JUMPDEST PUSH0 DUP1 REVERT JUMPDEST PUSH0 PUSH1 0x1F NOT PUSH1 0x1F DUP4 ADD AND SWAP1 POP SWAP2 SWAP1 POP JUMP JUMPDEST PUSH32 0x4E487B7100000000000000000000000000000000000000000000000000000000 PUSH0 MSTORE PUSH1 0x41 PUSH1 0x4 MSTORE PUSH1 0x24 PUSH0 REVERT JUMPDEST PUSH2 0x1B7 DUP3 PUSH2 0x171 JUMP JUMPDEST DUP2 ADD DUP2 DUP2 LT PUSH8 0xFFFFFFFFFFFFFFFF DUP3 GT OR ISZERO PUSH2 0x1D6 JUMPI PUSH2 0x1D5 PUSH2 0x181 JUMP JUMPDEST JUMPDEST DUP1 PUSH1 0x40 MSTORE POP POP POP JUMP JUMPDEST PUSH0 PUSH2 0x1E8 PUSH2 0x158 JUMP JUMPDEST SWAP1 POP PUSH2 0x1F4 DUP3 DUP3 PUSH2 0x1AE JUMP JUMPDEST SWAP2 SWAP1 POP JUMP JUMPDEST PUSH0 PUSH8 0xFFFFFFFFFFFFFFFF DUP3 GT ISZERO PUSH2 0x213 JUMPI PUSH2 0x212 PUSH2 0x181 JUMP JUMPDEST JUMPDEST PUSH2 0x21C DUP3 PUSH2 0x171 JUMP JUMPDEST SWAP1 POP PUSH1 0x20 DUP2 ADD SWAP1 POP SWAP2 SWAP1 POP JUMP JUMPDEST DUP3 DUP2 DUP4 CALLDATACOPY PUSH0 DUP4 DUP4 ADD MSTORE POP POP POP JUMP JUMPDEST PUSH0 PUSH2 0x249 PUSH2 0x244 DUP5 PUSH2 0x1F9 JUMP JUMPDEST PUSH2 0x1DF JUMP JUMPDEST SWAP1 POP DUP3 DUP2 MSTORE PUSH1 0x20 DUP2 ADD DUP5 DUP5 DUP5 ADD GT ISZERO PUSH2 0x265 JUMPI PUSH2 0x264 PUSH2 0x16D JUMP JUMPDEST JUMPDEST PUSH2 0x270 DUP5 DUP3 DUP6 PUSH2 0x229 JUMP JUMPDEST POP SWAP4 SWAP3 POP POP POP JUMP JUMPDEST PUSH0 DUP3 PUSH1 0x1F DUP4 ADD SLT PUSH2 0x28C JUMPI PUSH2 0x28B PUSH2 0x169 JUMP JUMPDEST JUMPDEST DUP2 CALLDATALOAD PUSH2 0x29C DUP5 DUP3 PUSH1 0x20 DUP7 ADD PUSH2 0x237 JUMP JUMPDEST SWAP2 POP POP SWAP3 SWAP2 POP POP JUMP JUMPDEST PUSH0 PUSH1 0xFF DUP3 AND SWAP1 POP SWAP2 SWAP1 POP JUMP JUMPDEST PUSH2 0x2BA DUP2 PUSH2 0x2A5 JUMP JUMPDEST DUP2 EQ PUSH2 0x2C4 JUMPI PUSH0 DUP1 REVERT JUMPDEST POP JUMP JUMPDEST PUSH0 DUP2 CALLDATALOAD SWAP1 POP PUSH2 0x2D5 DUP2 PUSH2 0x2B1 JUMP JUMPDEST SWAP3 SWAP2 POP POP JUMP JUMPDEST PUSH0 DUP1 PUSH1 0x40 DUP4 DUP6 SUB SLT ISZERO PUSH2 0x2F1 JUMPI PUSH2 0x2F0 PUSH2 0x161 JUMP JUMPDEST JUMPDEST PUSH0 DUP4 ADD CALLDATALOAD PUSH8 0xFFFFFFFFFFFFFFFF DUP2 GT ISZERO PUSH2 0x30E JUMPI PUSH2 0x30D PUSH2 0x165 JUMP JUMPDEST JUMPDEST PUSH2 0x31A DUP6 DUP3 DUP7 ADD PUSH2 0x278 JUMP JUMPDEST SWAP3 POP POP PUSH1 0x20 PUSH2 0x32B DUP6 DUP3 DUP7 ADD PUSH2 0x2C7 JUMP JUMPDEST SWAP2 POP POP SWAP3 POP SWAP3 SWAP1 POP JUMP JUMPDEST PUSH0 DUP2 MLOAD SWAP1 POP SWAP2 SWAP1 POP JUMP JUMPDEST PUSH0 DUP3 DUP3 MSTORE PUSH1 0x20 DUP3 ADD SWAP1 POP SWAP3 SWAP2 POP POP JUMP JUMPDEST PUSH0 JUMPDEST DUP4 DUP2 LT ISZERO PUSH2 0x36C JUMPI DUP1 DUP3 ADD MLOAD DUP2 DUP5 ADD MSTORE PUSH1 0x20 DUP2 ADD SWAP1 POP PUSH2 0x351 JUMP JUMPDEST PUSH0 DUP5 DUP5 ADD MSTORE POP POP POP POP JUMP JUMPDEST PUSH0 PUSH2 0x381 DUP3 PUSH2 0x335 JUMP JUMPDEST PUSH2 0x38B DUP2 DUP6 PUSH2 0x33F JUMP JUMPDEST SWAP4 POP PUSH2 0x39B DUP2 DUP6 PUSH1 0x20 DUP7 ADD PUSH2 0x34F JUMP JUMPDEST PUSH2 0x3A4 DUP2 PUSH2 0x171 JUMP JUMPDEST DUP5 ADD SWAP2 POP POP SWAP3 SWAP2 POP POP JUMP JUMPDEST PUSH2 0x3B8 DUP2 PUSH2 0x2A5 JUMP JUMPDEST DUP3 MSTORE POP POP JUMP JUMPDEST PUSH0 DUP2 ISZERO ISZERO SWAP1 POP SWAP2 SWAP1 POP JUMP JUMPDEST PUSH2 0x3D2 DUP2 PUSH2 0x3BE JUMP JUMPDEST DUP3 MSTORE POP POP JUMP JUMPDEST PUSH0 PUSH1 0x60 DUP3 ADD SWAP1 POP DUP2 DUP2 SUB PUSH0 DUP4 ADD MSTORE PUSH2 0x3F0 DUP2 DUP7 PUSH2 0x377 JUMP JUMPDEST SWAP1 POP PUSH2 0x3FF PUSH1 0x20 DUP4 ADD DUP6 PUSH2 0x3AF JUMP JUMPDEST PUSH2 0x40C PUSH1 0x40 DUP4 ADD DUP5 PUSH2 0x3C9 JUMP JUMPDEST SWAP5 SWAP4 POP POP POP POP JUMP JUMPDEST PUSH32 0x4E487B7100000000000000000000000000000000000000000000000000000000 PUSH0 MSTORE PUSH1 0x22 PUSH1 0x4 MSTORE PUSH1 0x24 PUSH0 REVERT JUMPDEST PUSH0 PUSH1 0x2 DUP3 DIV SWAP1 POP PUSH1 0x1 DUP3 AND DUP1 PUSH2 0x458 JUMPI PUSH1 0x7F DUP3 AND SWAP2 POP JUMPDEST PUSH1 0x20 DUP3 LT DUP2 SUB PUSH2 0x46B JUMPI PUSH2 0x46A PUSH2 0x414 JUMP JUMPDEST JUMPDEST POP SWAP2 SWAP1 POP JUMP JUMPDEST PUSH0 DUP2 SWAP1 POP DUP2 PUSH0 MSTORE PUSH1 0x20 PUSH0 KECCAK256 SWAP1 POP SWAP2 SWAP1 POP JUMP JUMPDEST PUSH0 PUSH1 0x20 PUSH1 0x1F DUP4 ADD DIV SWAP1 POP SWAP2 SWAP1 POP JUMP JUMPDEST PUSH0 DUP3 DUP3 SHL SWAP1 POP SWAP3 SWAP2 POP POP JUMP JUMPDEST PUSH0 PUSH1 0x8 DUP4 MUL PUSH2 0x4CD PUSH32 0xFFFFFFFFFFFFFFFFFFFFFFFFFFFFFFFFFFFFFFFFFFFFFFFFFFFFFFFFFFFFFFFF DUP3 PUSH2 0x492 JUMP JUMPDEST PUSH2 0x4D7 DUP7 DUP4 PUSH2 0x492 JUMP JUMPDEST SWAP6 POP DUP1 NOT DUP5 AND SWAP4 POP DUP1 DUP7 AND DUP5 OR SWAP3 POP POP POP SWAP4 SWAP3 POP POP POP JUMP JUMPDEST PUSH0 DUP2 SWAP1 POP SWAP2 SWAP1 POP JUMP JUMPDEST PUSH0 DUP2 SWAP1 POP SWAP2 SWAP1 POP JUMP JUMPDEST PUSH0 PUSH2 0x51B PUSH2 0x516 PUSH2 0x511 DUP5 PUSH2 0x4EF JUMP JUMPDEST PUSH2 0x4F8 JUMP JUMPDEST PUSH2 0x4EF JUMP JUMPDEST SWAP1 POP SWAP2 SWAP1 POP JUMP JUMPDEST PUSH0 DUP2 SWAP1 POP SWAP2 SWAP1 POP JUMP JUMPDEST PUSH2 0x534 DUP4 PUSH2 0x501 JUMP JUMPDEST PUSH2 0x548 PUSH2 0x540 DUP3 PUSH2 0x522 JUMP JUMPDEST DUP5 DUP5 SLOAD PUSH2 0x49E JUMP JUMPDEST DUP3 SSTORE POP POP POP POP JUMP JUMPDEST PUSH0 SWAP1 JUMP JUMPDEST PUSH2 0x55C PUSH2 0x550 JUMP JUMPDEST PUSH2 0x567 DUP2 DUP5 DUP5 PUSH2 0x52B JUMP JUMPDEST POP POP POP JUMP JUMPDEST JUMPDEST DUP2 DUP2 LT ISZERO PUSH2 0x58A JUMPI PUSH2 0x57F PUSH0 DUP3 PUSH2 0x554 JUMP JUMPDEST PUSH1 0x1 DUP2 ADD SWAP1 POP PUSH2 0x56D JUMP JUMPDEST POP POP JUMP JUMPDEST PUSH1 0x1F DUP3 GT ISZERO PUSH2 0x5CF JUMPI PUSH2 0x5A0 DUP2 PUSH2 0x471 JUMP JUMPDEST PUSH2 0x5A9 DUP5 PUSH2 0x483 JUMP JUMPDEST DUP2 ADD PUSH1 0x20 DUP6 LT ISZERO PUSH2 0x5B8 JUMPI DUP2 SWAP1 POP JUMPDEST PUSH2 0x5CC PUSH2 0x5C4 DUP6 PUSH2 0x483 JUMP JUMPDEST DUP4 ADD DUP3 PUSH2 0x56C JUMP JUMPDEST POP POP JUMPDEST POP POP POP JUMP JUMPDEST PUSH0 DUP3 DUP3 SHR SWAP1 POP SWAP3 SWAP2 POP POP JUMP JUMPDEST PUSH0 PUSH2 0x5EF PUSH0 NOT DUP5 PUSH1 0x8 MUL PUSH2 0x5D4 JUMP JUMPDEST NOT DUP1 DUP4 AND SWAP2 POP POP SWAP3 SWAP2 POP POP JUMP JUMPDEST PUSH0 PUSH2 0x607 DUP4 DUP4 PUSH2 0x5E0 JUMP JUMPDEST SWAP2 POP DUP3 PUSH1 0x2 MUL DUP3 OR SWAP1 POP SWAP3 SWAP2 POP POP JUMP JUMPDEST PUSH2 0x620 DUP3 PUSH2 0x335 JUMP JUMPDEST PUSH8 0xFFFFFFFFFFFFFFFF DUP2 GT ISZERO PUSH2 0x639 JUMPI PUSH2 0x638 PUSH2 0x181 JUMP JUMPDEST JUMPDEST PUSH2 0x643 DUP3 SLOAD PUSH2 0x441 JUMP JUMPDEST PUSH2 0x64E DUP3 DUP3 DUP6 PUSH2 0x58E JUMP JUMPDEST PUSH0 PUSH1 0x20 SWAP1 POP PUSH1 0x1F DUP4 GT PUSH1 0x1 DUP2 EQ PUSH2 0x67F JUMPI PUSH0 DUP5 ISZERO PUSH2 0x66D JUMPI DUP3 DUP8 ADD MLOAD SWAP1 POP JUMPDEST PUSH2 0x677 DUP6 DUP3 PUSH2 0x5FC JUMP JUMPDEST DUP7 SSTORE POP PUSH2 0x6DE JUMP JUMPDEST PUSH1 0x1F NOT DUP5 AND PUSH2 0x68D DUP7 PUSH2 0x471 JUMP JUMPDEST PUSH0 JUMPDEST DUP3 DUP2 LT ISZERO PUSH2 0x6B4 JUMPI DUP5 DUP10 ADD MLOAD DUP3 SSTORE PUSH1 0x1 DUP3 ADD SWAP2 POP PUSH1 0x20 DUP6 ADD SWAP5 POP PUSH1 0x20 DUP2 ADD SWAP1 POP PUSH2 0x68F JUMP JUMPDEST DUP7 DUP4 LT ISZERO PUSH2 0x6D1 JUMPI DUP5 DUP10 ADD MLOAD PUSH2 0x6CD PUSH1 0x1F DUP10 AND DUP3 PUSH2 0x5E0 JUMP JUMPDEST DUP4 SSTORE POP JUMPDEST PUSH1 0x1 PUSH1 0x2 DUP9 MUL ADD DUP9 SSTORE POP POP POP JUMPDEST POP POP POP POP POP POP JUMP INVALID LOG2 PUSH5 0x6970667358 0x22 SLT KECCAK256 0xCF MSTORE 0xC0 CODESIZE PUSH32 0xBBDE26C81A409D8BD178D05412CCC2EB5AA512FBBCDBF3BB5A006D64736F6C63 NUMBER STOP ADDMOD AND STOP CALLER "
				},
				"gasEstimates": {
					"creation": {
						"codeDepositCost": "364000",
						"executionCost": "24714",
						"totalCost": "388714"
					},
					"external": {
						"get()": "infinite",
						"store(string,uint8)": "infinite"
					}
				},
				"methodIdentifiers": {
					"get()": "6d4ce63c",
					"store(string,uint8)": "57d9190b"
				}
			},
			"storageLayout": {
				"storage": [
					{
						"astId": 3,
						"contract": "Practice Contracts/VariablesandData.sol:VariablesandData",
						"label": "name",
						"offset": 0,
						"slot": "0",
						"type": "t_string_storage"
					},
					{
						"astId": 5,
						"contract": "Practice Contracts/VariablesandData.sol:VariablesandData",
						"label": "age",
						"offset": 0,
						"slot": "1",
						"type": "t_uint8"
					},
					{
						"astId": 8,
						"contract": "Practice Contracts/VariablesandData.sol:VariablesandData",
						"label": "alive",
						"offset": 1,
						"slot": "1",
						"type": "t_bool"
					}
				],
				"types": {
					"t_bool": {
						"encoding": "inplace",
						"label": "bool",
						"numberOfBytes": "1"
					},
					"t_string_storage": {
						"encoding": "bytes",
						"label": "string",
						"numberOfBytes": "32"
					},
					"t_uint8": {
						"encoding": "inplace",
						"label": "uint8",
						"numberOfBytes": "1"
					}
				}
			},
			"userdoc": {
				"kind": "user",
				"methods": {},
				"version": 1
			}
		}
	}
}