{
	"Practice Contracts/Operators.sol": {
		"Operators": {
			"abi": [
				{
					"inputs": [],
					"name": "addition",
					"outputs": [
						{
							"internalType": "uint256",
							"name": "",
							"type": "uint256"
						}
					],
					"stateMutability": "view",
					"type": "function"
				},
				{
					"inputs": [],
					"name": "division",
					"outputs": [
						{
							"internalType": "uint256",
							"name": "",
							"type": "uint256"
						}
					],
					"stateMutability": "view",
					"type": "function"
				},
				{
					"inputs": [],
					"name": "isGreater",
					"outputs": [
						{
							"internalType": "bool",
							"name": "",
							"type": "bool"
						}
					],
					"stateMutability": "view",
					"type": "function"
				},
				{
					"inputs": [],
					"name": "isLesser",
					"outputs": [
						{
							"internalType": "bool",
							"name": "",
							"type": "bool"
						}
					],
					"stateMutability": "view",
					"type": "function"
				},
				{
					"inputs": [],
					"name": "multiplication",
					"outputs": [
						{
							"internalType": "uint256",
							"name": "",
							"type": "uint256"
						}
					],
					"stateMutability": "view",
					"type": "function"
				},
				{
					"inputs": [
						{
							"internalType": "uint256",
							"name": "_x",
							"type": "uint256"
						},
						{
							"internalType": "uint256",
							"name": "_y",
							"type": "uint256"
						}
					],
					"name": "storeInfo",
					"outputs": [],
					"stateMutability": "nonpayable",
					"type": "function"
				},
				{
					"inputs": [],
					"name": "subtraction",
					"outputs": [
						{
							"internalType": "uint256",
							"name": "",
							"type": "uint256"
						}
					],
					"stateMutability": "view",
					"type": "function"
				}
			],
			"devdoc": {
				"kind": "dev",
				"methods": {},
				"version": 1
			},
			"evm": {
				"assembly": "    /* \"Practice Contracts/Operators.sol\":60:746  contract Operators{... */\n  mstore(0x40, 0x80)\n  callvalue\n  dup1\n  iszero\n  tag_1\n  jumpi\n  0x00\n  dup1\n  revert\ntag_1:\n  pop\n  dataSize(sub_0)\n  dup1\n  dataOffset(sub_0)\n  0x00\n  codecopy\n  0x00\n  return\nstop\n\nsub_0: assembly {\n        /* \"Practice Contracts/Operators.sol\":60:746  contract Operators{... */\n      mstore(0x40, 0x80)\n      callvalue\n      dup1\n      iszero\n      tag_1\n      jumpi\n      0x00\n      dup1\n      revert\n    tag_1:\n      pop\n      jumpi(tag_2, lt(calldatasize, 0x04))\n      shr(0xe0, calldataload(0x00))\n      dup1\n      0x37611353\n      gt\n      tag_10\n      jumpi\n      dup1\n      0x37611353\n      eq\n      tag_6\n      jumpi\n      dup1\n      0x5abadf3d\n      eq\n      tag_7\n      jumpi\n      dup1\n      0xe3ec0251\n      eq\n      tag_8\n      jumpi\n      dup1\n      0xec597128\n      eq\n      tag_9\n      jumpi\n      jump(tag_2)\n    tag_10:\n      dup1\n      0x011285da\n      eq\n      tag_3\n      jumpi\n      dup1\n      0x1bdf0cdc\n      eq\n      tag_4\n      jumpi\n      dup1\n      0x3205f5fc\n      eq\n      tag_5\n      jumpi\n    tag_2:\n      0x00\n      dup1\n      revert\n        /* \"Practice Contracts/Operators.sol\":394:479  function multiplication () public view returns (uint) {... */\n    tag_3:\n      tag_11\n      tag_12\n      jump\t// in\n    tag_11:\n      mload(0x40)\n      tag_13\n      swap2\n      swap1\n      tag_14\n      jump\t// in\n    tag_13:\n      mload(0x40)\n      dup1\n      swap2\n      sub\n      swap1\n      return\n        /* \"Practice Contracts/Operators.sol\":570:654  function isGreater () public view returns (bool) {... */\n    tag_4:\n      tag_15\n      tag_16\n      jump\t// in\n    tag_15:\n      mload(0x40)\n      tag_17\n      swap2\n      swap1\n      tag_18\n      jump\t// in\n    tag_17:\n      mload(0x40)\n      dup1\n      swap2\n      sub\n      swap1\n      return\n        /* \"Practice Contracts/Operators.sol\":485:564  function division () public view returns (uint) {... */\n    tag_5:\n      tag_19\n      tag_20\n      jump\t// in\n    tag_19:\n      mload(0x40)\n      tag_21\n      swap2\n      swap1\n      tag_14\n      jump\t// in\n    tag_21:\n      mload(0x40)\n      dup1\n      swap2\n      sub\n      swap1\n      return\n        /* \"Practice Contracts/Operators.sol\":129:215  function storeInfo(uint _x, uint _y) public {... */\n    tag_6:\n      tag_22\n      0x04\n      dup1\n      calldatasize\n      sub\n      dup2\n      add\n      swap1\n      tag_23\n      swap2\n      swap1\n      tag_24\n      jump\t// in\n    tag_23:\n      tag_25\n      jump\t// in\n    tag_22:\n      stop\n        /* \"Practice Contracts/Operators.sol\":660:743  function isLesser () public view returns (bool) {... */\n    tag_7:\n      tag_26\n      tag_27\n      jump\t// in\n    tag_26:\n      mload(0x40)\n      tag_28\n      swap2\n      swap1\n      tag_18\n      jump\t// in\n    tag_28:\n      mload(0x40)\n      dup1\n      swap2\n      sub\n      swap1\n      return\n        /* \"Practice Contracts/Operators.sol\":306:388  function subtraction () public view returns (uint) {... */\n    tag_8:\n      tag_29\n      tag_30\n      jump\t// in\n    tag_29:\n      mload(0x40)\n      tag_31\n      swap2\n      swap1\n      tag_14\n      jump\t// in\n    tag_31:\n      mload(0x40)\n      dup1\n      swap2\n      sub\n      swap1\n      return\n        /* \"Practice Contracts/Operators.sol\":221:300  function addition () public view returns (uint) {... */\n    tag_9:\n      tag_32\n      tag_33\n      jump\t// in\n    tag_32:\n      mload(0x40)\n      tag_34\n      swap2\n      swap1\n      tag_14\n      jump\t// in\n    tag_34:\n      mload(0x40)\n      dup1\n      swap2\n      sub\n      swap1\n      return\n        /* \"Practice Contracts/Operators.sol\":394:479  function multiplication () public view returns (uint) {... */\n    tag_12:\n        /* \"Practice Contracts/Operators.sol\":442:446  uint */\n      0x00\n        /* \"Practice Contracts/Operators.sol\":469:470  y */\n      sload(0x01)\n        /* \"Practice Contracts/Operators.sol\":467:468  x */\n      sload(0x00)\n        /* \"Practice Contracts/Operators.sol\":467:470  x*y */\n      tag_36\n      swap2\n      swap1\n      tag_37\n      jump\t// in\n    tag_36:\n        /* \"Practice Contracts/Operators.sol\":459:471  return (x*y) */\n      swap1\n      pop\n        /* \"Practice Contracts/Operators.sol\":394:479  function multiplication () public view returns (uint) {... */\n      swap1\n      jump\t// out\n        /* \"Practice Contracts/Operators.sol\":570:654  function isGreater () public view returns (bool) {... */\n    tag_16:\n        /* \"Practice Contracts/Operators.sol\":613:617  bool */\n      0x00\n        /* \"Practice Contracts/Operators.sol\":643:644  y */\n      sload(0x01)\n        /* \"Practice Contracts/Operators.sol\":639:640  x */\n      sload(0x00)\n        /* \"Practice Contracts/Operators.sol\":639:644  x > y */\n      gt\n        /* \"Practice Contracts/Operators.sol\":630:646  return ((x > y)) */\n      swap1\n      pop\n        /* \"Practice Contracts/Operators.sol\":570:654  function isGreater () public view returns (bool) {... */\n      swap1\n      jump\t// out\n        /* \"Practice Contracts/Operators.sol\":485:564  function division () public view returns (uint) {... */\n    tag_20:\n        /* \"Practice Contracts/Operators.sol\":527:531  uint */\n      0x00\n        /* \"Practice Contracts/Operators.sol\":554:555  y */\n      sload(0x01)\n        /* \"Practice Contracts/Operators.sol\":552:553  x */\n      sload(0x00)\n        /* \"Practice Contracts/Operators.sol\":552:555  x/y */\n      tag_40\n      swap2\n      swap1\n      tag_41\n      jump\t// in\n    tag_40:\n        /* \"Practice Contracts/Operators.sol\":544:556  return (x/y) */\n      swap1\n      pop\n        /* \"Practice Contracts/Operators.sol\":485:564  function division () public view returns (uint) {... */\n      swap1\n      jump\t// out\n        /* \"Practice Contracts/Operators.sol\":129:215  function storeInfo(uint _x, uint _y) public {... */\n    tag_25:\n        /* \"Practice Contracts/Operators.sol\":188:190  _x */\n      dup2\n        /* \"Practice Contracts/Operators.sol\":184:185  x */\n      0x00\n        /* \"Practice Contracts/Operators.sol\":184:190  x = _x */\n      dup2\n      swap1\n      sstore\n      pop\n        /* \"Practice Contracts/Operators.sol\":205:207  _y */\n      dup1\n        /* \"Practice Contracts/Operators.sol\":201:202  y */\n      0x01\n        /* \"Practice Contracts/Operators.sol\":201:207  y = _y */\n      dup2\n      swap1\n      sstore\n      pop\n        /* \"Practice Contracts/Operators.sol\":129:215  function storeInfo(uint _x, uint _y) public {... */\n      pop\n      pop\n      jump\t// out\n        /* \"Practice Contracts/Operators.sol\":660:743  function isLesser () public view returns (bool) {... */\n    tag_27:\n        /* \"Practice Contracts/Operators.sol\":702:706  bool */\n      0x00\n        /* \"Practice Contracts/Operators.sol\":732:733  y */\n      sload(0x01)\n        /* \"Practice Contracts/Operators.sol\":728:729  x */\n      sload(0x00)\n        /* \"Practice Contracts/Operators.sol\":728:733  x < y */\n      lt\n        /* \"Practice Contracts/Operators.sol\":719:735  return ((x < y)) */\n      swap1\n      pop\n        /* \"Practice Contracts/Operators.sol\":660:743  function isLesser () public view returns (bool) {... */\n      swap1\n      jump\t// out\n        /* \"Practice Contracts/Operators.sol\":306:388  function subtraction () public view returns (uint) {... */\n    tag_30:\n        /* \"Practice Contracts/Operators.sol\":351:355  uint */\n      0x00\n        /* \"Practice Contracts/Operators.sol\":378:379  y */\n      sload(0x01)\n        /* \"Practice Contracts/Operators.sol\":376:377  x */\n      sload(0x00)\n        /* \"Practice Contracts/Operators.sol\":376:379  x-y */\n      tag_45\n      swap2\n      swap1\n      tag_46\n      jump\t// in\n    tag_45:\n        /* \"Practice Contracts/Operators.sol\":368:380  return (x-y) */\n      swap1\n      pop\n        /* \"Practice Contracts/Operators.sol\":306:388  function subtraction () public view returns (uint) {... */\n      swap1\n      jump\t// out\n        /* \"Practice Contracts/Operators.sol\":221:300  function addition () public view returns (uint) {... */\n    tag_33:\n        /* \"Practice Contracts/Operators.sol\":263:267  uint */\n      0x00\n        /* \"Practice Contracts/Operators.sol\":290:291  y */\n      sload(0x01)\n        /* \"Practice Contracts/Operators.sol\":288:289  x */\n      sload(0x00)\n        /* \"Practice Contracts/Operators.sol\":288:291  x+y */\n      tag_48\n      swap2\n      swap1\n      tag_49\n      jump\t// in\n    tag_48:\n        /* \"Practice Contracts/Operators.sol\":280:292  return (x+y) */\n      swap1\n      pop\n        /* \"Practice Contracts/Operators.sol\":221:300  function addition () public view returns (uint) {... */\n      swap1\n      jump\t// out\n        /* \"#utility.yul\":7:84   */\n    tag_50:\n        /* \"#utility.yul\":44:51   */\n      0x00\n        /* \"#utility.yul\":73:78   */\n      dup2\n        /* \"#utility.yul\":62:78   */\n      swap1\n      pop\n        /* \"#utility.yul\":7:84   */\n      swap2\n      swap1\n      pop\n      jump\t// out\n        /* \"#utility.yul\":90:208   */\n    tag_51:\n        /* \"#utility.yul\":177:201   */\n      tag_64\n        /* \"#utility.yul\":195:200   */\n      dup2\n        /* \"#utility.yul\":177:201   */\n      tag_50\n      jump\t// in\n    tag_64:\n        /* \"#utility.yul\":172:175   */\n      dup3\n        /* \"#utility.yul\":165:202   */\n      mstore\n        /* \"#utility.yul\":90:208   */\n      pop\n      pop\n      jump\t// out\n        /* \"#utility.yul\":214:436   */\n    tag_14:\n        /* \"#utility.yul\":307:311   */\n      0x00\n        /* \"#utility.yul\":345:347   */\n      0x20\n        /* \"#utility.yul\":334:343   */\n      dup3\n        /* \"#utility.yul\":330:348   */\n      add\n        /* \"#utility.yul\":322:348   */\n      swap1\n      pop\n        /* \"#utility.yul\":358:429   */\n      tag_66\n        /* \"#utility.yul\":426:427   */\n      0x00\n        /* \"#utility.yul\":415:424   */\n      dup4\n        /* \"#utility.yul\":411:428   */\n      add\n        /* \"#utility.yul\":402:408   */\n      dup5\n        /* \"#utility.yul\":358:429   */\n      tag_51\n      jump\t// in\n    tag_66:\n        /* \"#utility.yul\":214:436   */\n      swap3\n      swap2\n      pop\n      pop\n      jump\t// out\n        /* \"#utility.yul\":442:532   */\n    tag_52:\n        /* \"#utility.yul\":476:483   */\n      0x00\n        /* \"#utility.yul\":519:524   */\n      dup2\n        /* \"#utility.yul\":512:525   */\n      iszero\n        /* \"#utility.yul\":505:526   */\n      iszero\n        /* \"#utility.yul\":494:526   */\n      swap1\n      pop\n        /* \"#utility.yul\":442:532   */\n      swap2\n      swap1\n      pop\n      jump\t// out\n        /* \"#utility.yul\":538:647   */\n    tag_53:\n        /* \"#utility.yul\":619:640   */\n      tag_69\n        /* \"#utility.yul\":634:639   */\n      dup2\n        /* \"#utility.yul\":619:640   */\n      tag_52\n      jump\t// in\n    tag_69:\n        /* \"#utility.yul\":614:617   */\n      dup3\n        /* \"#utility.yul\":607:641   */\n      mstore\n        /* \"#utility.yul\":538:647   */\n      pop\n      pop\n      jump\t// out\n        /* \"#utility.yul\":653:863   */\n    tag_18:\n        /* \"#utility.yul\":740:744   */\n      0x00\n        /* \"#utility.yul\":778:780   */\n      0x20\n        /* \"#utility.yul\":767:776   */\n      dup3\n        /* \"#utility.yul\":763:781   */\n      add\n        /* \"#utility.yul\":755:781   */\n      swap1\n      pop\n        /* \"#utility.yul\":791:856   */\n      tag_71\n        /* \"#utility.yul\":853:854   */\n      0x00\n        /* \"#utility.yul\":842:851   */\n      dup4\n        /* \"#utility.yul\":838:855   */\n      add\n        /* \"#utility.yul\":829:835   */\n      dup5\n        /* \"#utility.yul\":791:856   */\n      tag_53\n      jump\t// in\n    tag_71:\n        /* \"#utility.yul\":653:863   */\n      swap3\n      swap2\n      pop\n      pop\n      jump\t// out\n        /* \"#utility.yul\":950:1067   */\n    tag_55:\n        /* \"#utility.yul\":1059:1060   */\n      0x00\n        /* \"#utility.yul\":1056:1057   */\n      dup1\n        /* \"#utility.yul\":1049:1061   */\n      revert\n        /* \"#utility.yul\":1196:1318   */\n    tag_57:\n        /* \"#utility.yul\":1269:1293   */\n      tag_76\n        /* \"#utility.yul\":1287:1292   */\n      dup2\n        /* \"#utility.yul\":1269:1293   */\n      tag_50\n      jump\t// in\n    tag_76:\n        /* \"#utility.yul\":1262:1267   */\n      dup2\n        /* \"#utility.yul\":1259:1294   */\n      eq\n        /* \"#utility.yul\":1249:1312   */\n      tag_77\n      jumpi\n        /* \"#utility.yul\":1308:1309   */\n      0x00\n        /* \"#utility.yul\":1305:1306   */\n      dup1\n        /* \"#utility.yul\":1298:1310   */\n      revert\n        /* \"#utility.yul\":1249:1312   */\n    tag_77:\n        /* \"#utility.yul\":1196:1318   */\n      pop\n      jump\t// out\n        /* \"#utility.yul\":1324:1463   */\n    tag_58:\n        /* \"#utility.yul\":1370:1375   */\n      0x00\n        /* \"#utility.yul\":1408:1414   */\n      dup2\n        /* \"#utility.yul\":1395:1415   */\n      calldataload\n        /* \"#utility.yul\":1386:1415   */\n      swap1\n      pop\n        /* \"#utility.yul\":1424:1457   */\n      tag_79\n        /* \"#utility.yul\":1451:1456   */\n      dup2\n        /* \"#utility.yul\":1424:1457   */\n      tag_57\n      jump\t// in\n    tag_79:\n        /* \"#utility.yul\":1324:1463   */\n      swap3\n      swap2\n      pop\n      pop\n      jump\t// out\n        /* \"#utility.yul\":1469:1943   */\n    tag_24:\n        /* \"#utility.yul\":1537:1543   */\n      0x00\n        /* \"#utility.yul\":1545:1551   */\n      dup1\n        /* \"#utility.yul\":1594:1596   */\n      0x40\n        /* \"#utility.yul\":1582:1591   */\n      dup4\n        /* \"#utility.yul\":1573:1580   */\n      dup6\n        /* \"#utility.yul\":1569:1592   */\n      sub\n        /* \"#utility.yul\":1565:1597   */\n      slt\n        /* \"#utility.yul\":1562:1681   */\n      iszero\n      tag_81\n      jumpi\n        /* \"#utility.yul\":1600:1679   */\n      tag_82\n      tag_55\n      jump\t// in\n    tag_82:\n        /* \"#utility.yul\":1562:1681   */\n    tag_81:\n        /* \"#utility.yul\":1720:1721   */\n      0x00\n        /* \"#utility.yul\":1745:1798   */\n      tag_83\n        /* \"#utility.yul\":1790:1797   */\n      dup6\n        /* \"#utility.yul\":1781:1787   */\n      dup3\n        /* \"#utility.yul\":1770:1779   */\n      dup7\n        /* \"#utility.yul\":1766:1788   */\n      add\n        /* \"#utility.yul\":1745:1798   */\n      tag_58\n      jump\t// in\n    tag_83:\n        /* \"#utility.yul\":1735:1798   */\n      swap3\n      pop\n        /* \"#utility.yul\":1691:1808   */\n      pop\n        /* \"#utility.yul\":1847:1849   */\n      0x20\n        /* \"#utility.yul\":1873:1926   */\n      tag_84\n        /* \"#utility.yul\":1918:1925   */\n      dup6\n        /* \"#utility.yul\":1909:1915   */\n      dup3\n        /* \"#utility.yul\":1898:1907   */\n      dup7\n        /* \"#utility.yul\":1894:1916   */\n      add\n        /* \"#utility.yul\":1873:1926   */\n      tag_58\n      jump\t// in\n    tag_84:\n        /* \"#utility.yul\":1863:1926   */\n      swap2\n      pop\n        /* \"#utility.yul\":1818:1936   */\n      pop\n        /* \"#utility.yul\":1469:1943   */\n      swap3\n      pop\n      swap3\n      swap1\n      pop\n      jump\t// out\n        /* \"#utility.yul\":1949:2129   */\n    tag_59:\n        /* \"#utility.yul\":1997:2074   */\n      0x4e487b7100000000000000000000000000000000000000000000000000000000\n        /* \"#utility.yul\":1994:1995   */\n      0x00\n        /* \"#utility.yul\":1987:2075   */\n      mstore\n        /* \"#utility.yul\":2094:2098   */\n      0x11\n        /* \"#utility.yul\":2091:2092   */\n      0x04\n        /* \"#utility.yul\":2084:2099   */\n      mstore\n        /* \"#utility.yul\":2118:2122   */\n      0x24\n        /* \"#utility.yul\":2115:2116   */\n      0x00\n        /* \"#utility.yul\":2108:2123   */\n      revert\n        /* \"#utility.yul\":2135:2545   */\n    tag_37:\n        /* \"#utility.yul\":2175:2182   */\n      0x00\n        /* \"#utility.yul\":2198:2218   */\n      tag_87\n        /* \"#utility.yul\":2216:2217   */\n      dup3\n        /* \"#utility.yul\":2198:2218   */\n      tag_50\n      jump\t// in\n    tag_87:\n        /* \"#utility.yul\":2193:2218   */\n      swap2\n      pop\n        /* \"#utility.yul\":2232:2252   */\n      tag_88\n        /* \"#utility.yul\":2250:2251   */\n      dup4\n        /* \"#utility.yul\":2232:2252   */\n      tag_50\n      jump\t// in\n    tag_88:\n        /* \"#utility.yul\":2227:2252   */\n      swap3\n      pop\n        /* \"#utility.yul\":2287:2288   */\n      dup3\n        /* \"#utility.yul\":2284:2285   */\n      dup3\n        /* \"#utility.yul\":2280:2289   */\n      mul\n        /* \"#utility.yul\":2309:2339   */\n      tag_89\n        /* \"#utility.yul\":2327:2338   */\n      dup2\n        /* \"#utility.yul\":2309:2339   */\n      tag_50\n      jump\t// in\n    tag_89:\n        /* \"#utility.yul\":2298:2339   */\n      swap2\n      pop\n        /* \"#utility.yul\":2488:2489   */\n      dup3\n        /* \"#utility.yul\":2479:2486   */\n      dup3\n        /* \"#utility.yul\":2475:2490   */\n      div\n        /* \"#utility.yul\":2472:2473   */\n      dup5\n        /* \"#utility.yul\":2469:2491   */\n      eq\n        /* \"#utility.yul\":2449:2450   */\n      dup4\n        /* \"#utility.yul\":2442:2451   */\n      iszero\n        /* \"#utility.yul\":2422:2505   */\n      or\n        /* \"#utility.yul\":2399:2538   */\n      tag_90\n      jumpi\n        /* \"#utility.yul\":2518:2536   */\n      tag_91\n      tag_59\n      jump\t// in\n    tag_91:\n        /* \"#utility.yul\":2399:2538   */\n    tag_90:\n        /* \"#utility.yul\":2183:2545   */\n      pop\n        /* \"#utility.yul\":2135:2545   */\n      swap3\n      swap2\n      pop\n      pop\n      jump\t// out\n        /* \"#utility.yul\":2551:2731   */\n    tag_60:\n        /* \"#utility.yul\":2599:2676   */\n      0x4e487b7100000000000000000000000000000000000000000000000000000000\n        /* \"#utility.yul\":2596:2597   */\n      0x00\n        /* \"#utility.yul\":2589:2677   */\n      mstore\n        /* \"#utility.yul\":2696:2700   */\n      0x12\n        /* \"#utility.yul\":2693:2694   */\n      0x04\n        /* \"#utility.yul\":2686:2701   */\n      mstore\n        /* \"#utility.yul\":2720:2724   */\n      0x24\n        /* \"#utility.yul\":2717:2718   */\n      0x00\n        /* \"#utility.yul\":2710:2725   */\n      revert\n        /* \"#utility.yul\":2737:2922   */\n    tag_41:\n        /* \"#utility.yul\":2777:2778   */\n      0x00\n        /* \"#utility.yul\":2794:2814   */\n      tag_94\n        /* \"#utility.yul\":2812:2813   */\n      dup3\n        /* \"#utility.yul\":2794:2814   */\n      tag_50\n      jump\t// in\n    tag_94:\n        /* \"#utility.yul\":2789:2814   */\n      swap2\n      pop\n        /* \"#utility.yul\":2828:2848   */\n      tag_95\n        /* \"#utility.yul\":2846:2847   */\n      dup4\n        /* \"#utility.yul\":2828:2848   */\n      tag_50\n      jump\t// in\n    tag_95:\n        /* \"#utility.yul\":2823:2848   */\n      swap3\n      pop\n        /* \"#utility.yul\":2867:2868   */\n      dup3\n        /* \"#utility.yul\":2857:2892   */\n      tag_96\n      jumpi\n        /* \"#utility.yul\":2872:2890   */\n      tag_97\n      tag_60\n      jump\t// in\n    tag_97:\n        /* \"#utility.yul\":2857:2892   */\n    tag_96:\n        /* \"#utility.yul\":2914:2915   */\n      dup3\n        /* \"#utility.yul\":2911:2912   */\n      dup3\n        /* \"#utility.yul\":2907:2916   */\n      div\n        /* \"#utility.yul\":2902:2916   */\n      swap1\n      pop\n        /* \"#utility.yul\":2737:2922   */\n      swap3\n      swap2\n      pop\n      pop\n      jump\t// out\n        /* \"#utility.yul\":2928:3122   */\n    tag_46:\n        /* \"#utility.yul\":2968:2972   */\n      0x00\n        /* \"#utility.yul\":2988:3008   */\n      tag_99\n        /* \"#utility.yul\":3006:3007   */\n      dup3\n        /* \"#utility.yul\":2988:3008   */\n      tag_50\n      jump\t// in\n    tag_99:\n        /* \"#utility.yul\":2983:3008   */\n      swap2\n      pop\n        /* \"#utility.yul\":3022:3042   */\n      tag_100\n        /* \"#utility.yul\":3040:3041   */\n      dup4\n        /* \"#utility.yul\":3022:3042   */\n      tag_50\n      jump\t// in\n    tag_100:\n        /* \"#utility.yul\":3017:3042   */\n      swap3\n      pop\n        /* \"#utility.yul\":3066:3067   */\n      dup3\n        /* \"#utility.yul\":3063:3064   */\n      dup3\n        /* \"#utility.yul\":3059:3068   */\n      sub\n        /* \"#utility.yul\":3051:3068   */\n      swap1\n      pop\n        /* \"#utility.yul\":3090:3091   */\n      dup2\n        /* \"#utility.yul\":3084:3088   */\n      dup2\n        /* \"#utility.yul\":3081:3092   */\n      gt\n        /* \"#utility.yul\":3078:3115   */\n      iszero\n      tag_101\n      jumpi\n        /* \"#utility.yul\":3095:3113   */\n      tag_102\n      tag_59\n      jump\t// in\n    tag_102:\n        /* \"#utility.yul\":3078:3115   */\n    tag_101:\n        /* \"#utility.yul\":2928:3122   */\n      swap3\n      swap2\n      pop\n      pop\n      jump\t// out\n        /* \"#utility.yul\":3128:3319   */\n    tag_49:\n        /* \"#utility.yul\":3168:3171   */\n      0x00\n        /* \"#utility.yul\":3187:3207   */\n      tag_104\n        /* \"#utility.yul\":3205:3206   */\n      dup3\n        /* \"#utility.yul\":3187:3207   */\n      tag_50\n      jump\t// in\n    tag_104:\n        /* \"#utility.yul\":3182:3207   */\n      swap2\n      pop\n        /* \"#utility.yul\":3221:3241   */\n      tag_105\n        /* \"#utility.yul\":3239:3240   */\n      dup4\n        /* \"#utility.yul\":3221:3241   */\n      tag_50\n      jump\t// in\n    tag_105:\n        /* \"#utility.yul\":3216:3241   */\n      swap3\n      pop\n        /* \"#utility.yul\":3264:3265   */\n      dup3\n        /* \"#utility.yul\":3261:3262   */\n      dup3\n        /* \"#utility.yul\":3257:3266   */\n      add\n        /* \"#utility.yul\":3250:3266   */\n      swap1\n      pop\n        /* \"#utility.yul\":3285:3288   */\n      dup1\n        /* \"#utility.yul\":3282:3283   */\n      dup3\n        /* \"#utility.yul\":3279:3289   */\n      gt\n        /* \"#utility.yul\":3276:3312   */\n      iszero\n      tag_106\n      jumpi\n        /* \"#utility.yul\":3292:3310   */\n      tag_107\n      tag_59\n      jump\t// in\n    tag_107:\n        /* \"#utility.yul\":3276:3312   */\n    tag_106:\n        /* \"#utility.yul\":3128:3319   */\n      swap3\n      swap2\n      pop\n      pop\n      jump\t// out\n\n    auxdata: 0xa2646970667358221220f488c9bd35c8abdca4000427662875ba2665bad790d17380b43f22738f1daee364736f6c63430008160033\n}\n",
				"bytecode": {
					"linkReferences": {},
					"object": "608060405234801561000f575f80fd5b506104038061001d5f395ff3fe608060405234801561000f575f80fd5b506004361061007b575f3560e01c8063376113531161005957806337611353146100d95780635abadf3d146100f5578063e3ec025114610113578063ec597128146101315761007b565b8063011285da1461007f5780631bdf0cdc1461009d5780633205f5fc146100bb575b5f80fd5b61008761014f565b60405161009491906101e4565b60405180910390f35b6100a5610164565b6040516100b29190610217565b60405180910390f35b6100c3610170565b6040516100d091906101e4565b60405180910390f35b6100f360048036038101906100ee919061025e565b610185565b005b6100fd610196565b60405161010a9190610217565b60405180910390f35b61011b6101a2565b60405161012891906101e4565b60405180910390f35b6101396101b7565b60405161014691906101e4565b60405180910390f35b5f6001545f5461015f91906102c9565b905090565b5f6001545f5411905090565b5f6001545f546101809190610337565b905090565b815f81905550806001819055505050565b5f6001545f5410905090565b5f6001545f546101b29190610367565b905090565b5f6001545f546101c7919061039a565b905090565b5f819050919050565b6101de816101cc565b82525050565b5f6020820190506101f75f8301846101d5565b92915050565b5f8115159050919050565b610211816101fd565b82525050565b5f60208201905061022a5f830184610208565b92915050565b5f80fd5b61023d816101cc565b8114610247575f80fd5b50565b5f8135905061025881610234565b92915050565b5f806040838503121561027457610273610230565b5b5f6102818582860161024a565b92505060206102928582860161024a565b9150509250929050565b7f4e487b71000000000000000000000000000000000000000000000000000000005f52601160045260245ffd5b5f6102d3826101cc565b91506102de836101cc565b92508282026102ec816101cc565b915082820484148315176103035761030261029c565b5b5092915050565b7f4e487b71000000000000000000000000000000000000000000000000000000005f52601260045260245ffd5b5f610341826101cc565b915061034c836101cc565b92508261035c5761035b61030a565b5b828204905092915050565b5f610371826101cc565b915061037c836101cc565b92508282039050818111156103945761039361029c565b5b92915050565b5f6103a4826101cc565b91506103af836101cc565b92508282019050808211156103c7576103c661029c565b5b9291505056fea2646970667358221220f488c9bd35c8abdca4000427662875ba2665bad790d17380b43f22738f1daee364736f6c63430008160033",
					"opcodes": "PUSH1 0x80 PUSH1 0x40 MSTORE CALLVALUE DUP1 ISZERO PUSH2 0xF JUMPI PUSH0 DUP1 REVERT JUMPDEST POP PUSH2 0x403 DUP1 PUSH2 0x1D PUSH0 CODECOPY PUSH0 RETURN INVALID PUSH1 0x80 PUSH1 0x40 MSTORE CALLVALUE DUP1 ISZERO PUSH2 0xF JUMPI PUSH0 DUP1 REVERT JUMPDEST POP PUSH1 0x4 CALLDATASIZE LT PUSH2 0x7B JUMPI PUSH0 CALLDATALOAD PUSH1 0xE0 SHR DUP1 PUSH4 0x37611353 GT PUSH2 0x59 JUMPI DUP1 PUSH4 0x37611353 EQ PUSH2 0xD9 JUMPI DUP1 PUSH4 0x5ABADF3D EQ PUSH2 0xF5 JUMPI DUP1 PUSH4 0xE3EC0251 EQ PUSH2 0x113 JUMPI DUP1 PUSH4 0xEC597128 EQ PUSH2 0x131 JUMPI PUSH2 0x7B JUMP JUMPDEST DUP1 PUSH4 0x11285DA EQ PUSH2 0x7F JUMPI DUP1 PUSH4 0x1BDF0CDC EQ PUSH2 0x9D JUMPI DUP1 PUSH4 0x3205F5FC EQ PUSH2 0xBB JUMPI JUMPDEST PUSH0 DUP1 REVERT JUMPDEST PUSH2 0x87 PUSH2 0x14F JUMP JUMPDEST PUSH1 0x40 MLOAD PUSH2 0x94 SWAP2 SWAP1 PUSH2 0x1E4 JUMP JUMPDEST PUSH1 0x40 MLOAD DUP1 SWAP2 SUB SWAP1 RETURN JUMPDEST PUSH2 0xA5 PUSH2 0x164 JUMP JUMPDEST PUSH1 0x40 MLOAD PUSH2 0xB2 SWAP2 SWAP1 PUSH2 0x217 JUMP JUMPDEST PUSH1 0x40 MLOAD DUP1 SWAP2 SUB SWAP1 RETURN JUMPDEST PUSH2 0xC3 PUSH2 0x170 JUMP JUMPDEST PUSH1 0x40 MLOAD PUSH2 0xD0 SWAP2 SWAP1 PUSH2 0x1E4 JUMP JUMPDEST PUSH1 0x40 MLOAD DUP1 SWAP2 SUB SWAP1 RETURN JUMPDEST PUSH2 0xF3 PUSH1 0x4 DUP1 CALLDATASIZE SUB DUP2 ADD SWAP1 PUSH2 0xEE SWAP2 SWAP1 PUSH2 0x25E JUMP JUMPDEST PUSH2 0x185 JUMP JUMPDEST STOP JUMPDEST PUSH2 0xFD PUSH2 0x196 JUMP JUMPDEST PUSH1 0x40 MLOAD PUSH2 0x10A SWAP2 SWAP1 PUSH2 0x217 JUMP JUMPDEST PUSH1 0x40 MLOAD DUP1 SWAP2 SUB SWAP1 RETURN JUMPDEST PUSH2 0x11B PUSH2 0x1A2 JUMP JUMPDEST PUSH1 0x40 MLOAD PUSH2 0x128 SWAP2 SWAP1 PUSH2 0x1E4 JUMP JUMPDEST PUSH1 0x40 MLOAD DUP1 SWAP2 SUB SWAP1 RETURN JUMPDEST PUSH2 0x139 PUSH2 0x1B7 JUMP JUMPDEST PUSH1 0x40 MLOAD PUSH2 0x146 SWAP2 SWAP1 PUSH2 0x1E4 JUMP JUMPDEST PUSH1 0x40 MLOAD DUP1 SWAP2 SUB SWAP1 RETURN JUMPDEST PUSH0 PUSH1 0x1 SLOAD PUSH0 SLOAD PUSH2 0x15F SWAP2 SWAP1 PUSH2 0x2C9 JUMP JUMPDEST SWAP1 POP SWAP1 JUMP JUMPDEST PUSH0 PUSH1 0x1 SLOAD PUSH0 SLOAD GT SWAP1 POP SWAP1 JUMP JUMPDEST PUSH0 PUSH1 0x1 SLOAD PUSH0 SLOAD PUSH2 0x180 SWAP2 SWAP1 PUSH2 0x337 JUMP JUMPDEST SWAP1 POP SWAP1 JUMP JUMPDEST DUP2 PUSH0 DUP2 SWAP1 SSTORE POP DUP1 PUSH1 0x1 DUP2 SWAP1 SSTORE POP POP POP JUMP JUMPDEST PUSH0 PUSH1 0x1 SLOAD PUSH0 SLOAD LT SWAP1 POP SWAP1 JUMP JUMPDEST PUSH0 PUSH1 0x1 SLOAD PUSH0 SLOAD PUSH2 0x1B2 SWAP2 SWAP1 PUSH2 0x367 JUMP JUMPDEST SWAP1 POP SWAP1 JUMP JUMPDEST PUSH0 PUSH1 0x1 SLOAD PUSH0 SLOAD PUSH2 0x1C7 SWAP2 SWAP1 PUSH2 0x39A JUMP JUMPDEST SWAP1 POP SWAP1 JUMP JUMPDEST PUSH0 DUP2 SWAP1 POP SWAP2 SWAP1 POP JUMP JUMPDEST PUSH2 0x1DE DUP2 PUSH2 0x1CC JUMP JUMPDEST DUP3 MSTORE POP POP JUMP JUMPDEST PUSH0 PUSH1 0x20 DUP3 ADD SWAP1 POP PUSH2 0x1F7 PUSH0 DUP4 ADD DUP5 PUSH2 0x1D5 JUMP JUMPDEST SWAP3 SWAP2 POP POP JUMP JUMPDEST PUSH0 DUP2 ISZERO ISZERO SWAP1 POP SWAP2 SWAP1 POP JUMP JUMPDEST PUSH2 0x211 DUP2 PUSH2 0x1FD JUMP JUMPDEST DUP3 MSTORE POP POP JUMP JUMPDEST PUSH0 PUSH1 0x20 DUP3 ADD SWAP1 POP PUSH2 0x22A PUSH0 DUP4 ADD DUP5 PUSH2 0x208 JUMP JUMPDEST SWAP3 SWAP2 POP POP JUMP JUMPDEST PUSH0 DUP1 REVERT JUMPDEST PUSH2 0x23D DUP2 PUSH2 0x1CC JUMP JUMPDEST DUP2 EQ PUSH2 0x247 JUMPI PUSH0 DUP1 REVERT JUMPDEST POP JUMP JUMPDEST PUSH0 DUP2 CALLDATALOAD SWAP1 POP PUSH2 0x258 DUP2 PUSH2 0x234 JUMP JUMPDEST SWAP3 SWAP2 POP POP JUMP JUMPDEST PUSH0 DUP1 PUSH1 0x40 DUP4 DUP6 SUB SLT ISZERO PUSH2 0x274 JUMPI PUSH2 0x273 PUSH2 0x230 JUMP JUMPDEST JUMPDEST PUSH0 PUSH2 0x281 DUP6 DUP3 DUP7 ADD PUSH2 0x24A JUMP JUMPDEST SWAP3 POP POP PUSH1 0x20 PUSH2 0x292 DUP6 DUP3 DUP7 ADD PUSH2 0x24A JUMP JUMPDEST SWAP2 POP POP SWAP3 POP SWAP3 SWAP1 POP JUMP JUMPDEST PUSH32 0x4E487B7100000000000000000000000000000000000000000000000000000000 PUSH0 MSTORE PUSH1 0x11 PUSH1 0x4 MSTORE PUSH1 0x24 PUSH0 REVERT JUMPDEST PUSH0 PUSH2 0x2D3 DUP3 PUSH2 0x1CC JUMP JUMPDEST SWAP2 POP PUSH2 0x2DE DUP4 PUSH2 0x1CC JUMP JUMPDEST SWAP3 POP DUP3 DUP3 MUL PUSH2 0x2EC DUP2 PUSH2 0x1CC JUMP JUMPDEST SWAP2 POP DUP3 DUP3 DIV DUP5 EQ DUP4 ISZERO OR PUSH2 0x303 JUMPI PUSH2 0x302 PUSH2 0x29C JUMP JUMPDEST JUMPDEST POP SWAP3 SWAP2 POP POP JUMP JUMPDEST PUSH32 0x4E487B7100000000000000000000000000000000000000000000000000000000 PUSH0 MSTORE PUSH1 0x12 PUSH1 0x4 MSTORE PUSH1 0x24 PUSH0 REVERT JUMPDEST PUSH0 PUSH2 0x341 DUP3 PUSH2 0x1CC JUMP JUMPDEST SWAP2 POP PUSH2 0x34C DUP4 PUSH2 0x1CC JUMP JUMPDEST SWAP3 POP DUP3 PUSH2 0x35C JUMPI PUSH2 0x35B PUSH2 0x30A JUMP JUMPDEST JUMPDEST DUP3 DUP3 DIV SWAP1 POP SWAP3 SWAP2 POP POP JUMP JUMPDEST PUSH0 PUSH2 0x371 DUP3 PUSH2 0x1CC JUMP JUMPDEST SWAP2 POP PUSH2 0x37C DUP4 PUSH2 0x1CC JUMP JUMPDEST SWAP3 POP DUP3 DUP3 SUB SWAP1 POP DUP2 DUP2 GT ISZERO PUSH2 0x394 JUMPI PUSH2 0x393 PUSH2 0x29C JUMP JUMPDEST JUMPDEST SWAP3 SWAP2 POP POP JUMP JUMPDEST PUSH0 PUSH2 0x3A4 DUP3 PUSH2 0x1CC JUMP JUMPDEST SWAP2 POP PUSH2 0x3AF DUP4 PUSH2 0x1CC JUMP JUMPDEST SWAP3 POP DUP3 DUP3 ADD SWAP1 POP DUP1 DUP3 GT ISZERO PUSH2 0x3C7 JUMPI PUSH2 0x3C6 PUSH2 0x29C JUMP JUMPDEST JUMPDEST SWAP3 SWAP2 POP POP JUMP INVALID LOG2 PUSH5 0x6970667358 0x22 SLT KECCAK256 DELEGATECALL DUP9 0xC9 0xBD CALLDATALOAD 0xC8 0xAB 0xDC LOG4 STOP DIV 0x27 PUSH7 0x2875BA2665BAD7 SWAP1 0xD1 PUSH20 0x80B43F22738F1DAEE364736F6C63430008160033 "
				},
				"gasEstimates": {
					"creation": {
						"codeDepositCost": "205400",
						"executionCost": "249",
						"totalCost": "205649"
					},
					"external": {
						"addition()": "infinite",
						"division()": "infinite",
						"isGreater()": "4566",
						"isLesser()": "4565",
						"multiplication()": "infinite",
						"storeInfo(uint256,uint256)": "infinite",
						"subtraction()": "infinite"
					}
				},
				"methodIdentifiers": {
					"addition()": "ec597128",
					"division()": "3205f5fc",
					"isGreater()": "1bdf0cdc",
					"isLesser()": "5abadf3d",
					"multiplication()": "011285da",
					"storeInfo(uint256,uint256)": "37611353",
					"subtraction()": "e3ec0251"
				}
			},
			"storageLayout": {
				"storage": [
					{
						"astId": 3,
						"contract": "Practice Contracts/Operators.sol:Operators",
						"label": "x",
						"offset": 0,
						"slot": "0",
						"type": "t_uint256"
					},
					{
						"astId": 5,
						"contract": "Practice Contracts/Operators.sol:Operators",
						"label": "y",
						"offset": 0,
						"slot": "1",
						"type": "t_uint256"
					},
					{
						"astId": 7,
						"contract": "Practice Contracts/Operators.sol:Operators",
						"label": "res",
						"offset": 0,
						"slot": "2",
						"type": "t_uint256"
					}
				],
				"types": {
					"t_uint256": {
						"encoding": "inplace",
						"label": "uint256",
						"numberOfBytes": "32"
					}
				}
			},
			"userdoc": {
				"kind": "user",
				"methods": {},
				"version": 1
			}
		}
	}
}